:020000040800F2
:1000000070A50020AD020008895B0008DDB2000881
:10001000115A0008910A0008317B00080000000016
:10002000000000000000000000000000D1020008F5
:10003000310C000800000000690300087903000883
:10004000C7020008C7020008C7020008C70200086C
:10005000C7020008C7020008C7020008C70200085C
:10006000C7020008C7020008C7020008C70200084C
:10007000C7020008C7020008C7020008C70200083C
:10008000C7020008C7020008C7020008C70200082C
:10009000C7020008C7020008C7020008C70200081C
:1000A000C7020008C7020008C7020008C70200080C
:1000B00071640008C7020008C7020008C7020008F0
:1000C000C7020008C7020008C7020008C7020008EC
:1000D000C7020008F9760008C7020008097700087F
:1000E000C7020008C702000800000000C70200089D
:1000F000C7020008C7020008C7020008C7020008BC
:10010000C7020008C7020008C7020008C7020008AB
:10011000C7020008C7020008C7020008C70200089B
:10012000C7020008C7020008C7020008C70200088B
:10013000C7020008C7020008C7020008C70200087B
:1001400000000000000000000000000000000000AF
:10015000C7020008C7020008C7020008C70200085B
:10016000C7020008C7020008C7020008C70200084B
:10017000C7020008C7020008C7020008000000000C
:10018000C7020008C7020008C7020008C70200082B
:10019000C7020008C7020008C7020008C70200081B
:1001A000C7020008C7020008C7020008C70200080B
:1001B000C7020008C7020008C7020008C7020008FB
:1001C000C7020008C7020008C7020008C7020008EB
:1001D000C7020008C7020008C7020008C7020008DB
:1001E000C7020008C7020008C7020008C7020008CB
:1001F000C7020008C7020008C7020008C7020008BB
:10020000C7020008C7020008C7020008C7020008AA
:10021000C7020008C7020008C7020008C70200089A
:10022000C7020008C7020008C7020008000000005B
:10023000C7020008C702000800000000C70200084B
:10024000C7020008C7020008C7020008C70200086A
:10025000C7020008C7020008C7020008C70200085A
:10026000C7020008C7020008C7020008C70200084A
:10027000C7020008C7020008C7020008000000000B
:10028000C702000800000000C702000800000000CC
:1002900000000000C7020008DFF80CD000F0BCFA34
:1002A000004800475989000870A50020064880478B
:1002B00006480047FEE7FEE7FEE7FEE7FEE7FEE74B
:1002C000FEE7FEE7FEE7FEE7696300089902000823
:1002D0001EF0040F0CBFEFF30880EFF30980816973
:1002E00011F8021C91BB01B590E80F10E047BDE882
:1002F00000508CE80300244B93E80600914208BFAD
:10030000704741B91EF0100F10D12049086820F045
:10031000010008600AE02CE9F00F1EF0100F08BF82
:100320002CED108AC1F838C081F822E01A6092F8EA
:100330002210906B61F0FF0E1EF0100F08BFB0ECA2
:10034000108AB0E8F00F80F309887047104A1368EC
:100350009942FAD801B552F821C00FC8E047BDE86C
:100360000050CCF80000704701B509F0B9F8BDE8BD
:100370000140EFF3098CBEE701B509F0D1FDBDE8FE
:100380000140EFF3098CB6E72000002034EF00E0D5
:1003900054BD00082DE9F05F0546002092469B46BB
:1003A00088460646814640241BE02846414647468B
:1003B000224600F069F853465A46C01A914110D3BC
:1003C00011461846224600F050F82D1A67EB010836
:1003D0004F4622460120002100F047F817EB0009A4
:1003E0004E41201EA4F10104DFDC484631462A4676
:1003F0004346BDE8F09F40EA01039B0703D009E0B4
:1004000008C9121F08C0042AFAD203E011F8013B00
:1004100000F8013B521EF9D27047D2B201E000F859
:10042000012B491EFBD270470022F6E710B5134698
:100430000A4604461946FFF7F0FF204610BD30B5C6
:100440000B46014600202022012409E021FA02F592
:100450009D4205D303FA02F5491B04FA02F528442C
:10046000151EA2F10102F1DC30BD202A04DB203A86
:1004700000FA02F1002070479140C2F1200320FAF7
:1004800003F3194390407047202A04DB203A21FAF5
:1004900002F00021704721FA02F3D040C2F120029D
:1004A00091400843194670472DE9FE4F804681EA86
:1004B0000300C00F0C46009021F0004123F00045DE
:1004C000B8EB0200A94105D24046214690461C46A1
:1004D0000B46024623F00040104347D0270DC7F3D8
:1004E0000A00C3F30A510290401A019040286BDAC7
:1004F000C3F3130040F4801B0098924620B1002300
:10050000D2EB030A63EB0B0B01985946C0F1400292
:100510005046FFF7AAFF06460D4650465946019A37
:1005200000F08CF910EB08006141002487EA1152B9
:1005300084EAE7731A4340D0009A62B3019A012A11
:100540004FEA075215DC001B61EB02014FF000423D
:1005500002EA0752CDE90042001C41F58011324603
:100560002B4600F08CF903B0BDE8F08F40462146E1
:10057000F9E7001B61EB0201001C41F58013001834
:100580005B412018A2F5001747EB030140EAD57044
:10059000B6196D4111E06D084FEA360645EAC0759F
:1005A0004FEA0752001B61EB0201001C41F580116C
:1005B00049084FEA30000019514132462B4603B03A
:1005C000BDE8F04F00F04CB9009801224000002334
:1005D000D0EB020263EBE073009821464FEAE0742F
:1005E000B8EB000061EB0401E9E783F000435BE74F
:1005F00081F0004158E72DE9FE4F81EA030404F041
:10060000004421F0004100944FF0000B23F0004320
:1006100050EA01045ED052EA03045BD0C3F30A54EB
:10062000C1F30A552C44A4F2F3340194A0FB025404
:10063000C1F3130141F48011C3F3130343F4801396
:1006400001FB024400FB034E840A970A44EA8154EA
:1006500047EA8357A4FB076802958D0A05FB0785C7
:100660004FEA932C04FB0C542705029D4FEA0658D1
:1006700047EA1637B5EB08056EEB070C870E920EAE
:1006800047EA811742EA8312A7FB0201B6EB0B018E
:1006900064EB00042B0D43EA0C335E1844EB1C5052
:1006A000DA465146E7FB0201C5F313044FEA0B3368
:1006B00043EA14534FEA0432019C43EA0603A4F1CF
:1006C0000C040294009CCDE900B400F0D8F803B00B
:1006D000BDE8F08F00200146F9E72DE9F04D81EAF1
:1006E000030404F0004B21F0004514464FF0000ACB
:1006F00023F0004150EA050220D054EA01021DD047
:10070000C5F30A570246C5F31303C1F31300C1F33F
:100710000A5640F4801543F48013A7EB0608101B1B
:10072000D64608F2FD3873EB050002D308F1010844
:1007300001E092185B41B8F1000F03DA0020014696
:10074000BDE8F08D00204FF48011064684460EE08F
:10075000171B73EB050705D3121B63EB0503064359
:100760004CEA010C49084FEA300092185B4150EA0C
:100770000107EDD152EA030012D082EA040083EAB5
:100780000501084305D0101BAB4106D2012200230E
:1007900006E000224FF0004302E06FF00102531028
:1007A0001AEB06004CEB085110EB0A0041EB0B0171
:1007B000BDE8F04D00F054B8C1F30A52C1F3130183
:1007C00040F2FF3341F480119A4202DA00200146E0
:1007D000704740F233439A42A2F2334202DC524263
:1007E000FFF752BEFFF741BE30B5041E71F10004A1
:1007F00004DB4FF00044404264EB0101141E73F12E
:10080000000405DB1C464FF00043524263EB040337
:10081000994208BF904230BD064C074D06E0E068A3
:1008200040F0010394E8070098471034AC42F6D337
:10083000FFF736FDECBE00080CBF0008202A06DBDF
:10084000CB17203A41FA02F043EAE07306E041FA9E
:1008500002F3D040C2F1200291400843194670478C
:1008600010B5141E73F1000408DA401C41F10001B8
:1008700092185B411A4301D120F0010010BD2DE90F
:10088000F04D92469B4611B1B1FA81F202E0B0FA06
:1008900080F220329046FFF7E8FD04460F4640EA1A
:1008A0000A0041EA0B0153465A46084313D0114649
:1008B00053EA010019D0C8F140025046FFF7E4FDA9
:1008C00005460E46504659464246FFF7CEFD0843C0
:1008D00005D0012004E020463946BDE8F08D002017
:1008E000054346EAE0762C4337430A986305E40A59
:1008F000A0EB08000022FD0A44EA47540A3002D562
:1009000000200146E9E7010510196941DDE90845C4
:1009100000196941BDE8F04DA2E7000000000000A9
:1009200080B582B040F6C110C0F600004BF6D04250
:10093000C0F600020021019109F026FC40F21011DE
:10094000C2F20001086040F69110C0F600004BF6BC
:10095000AC42C0F60002019909F016FC40F20C11FD
:10096000C2F20001086040F64920C0F600004BF6D4
:100970001852C0F60002019909F006FC40F2141169
:10098000C2F20001086002B080BD0000000000005B
:1009900080B586B001460590C820ADF812000291DE
:1009A00008F082F80390FFE7022007F011FD03989A
:1009B000C8300390039808F023F80190F4E7000092
:1009C00080B586B0014605900491FFE74BF61860AC
:1009D000C0F600004EF60171D0220390084603993C
:1009E00000F082F90A210290084607F0D9FF4EF67E
:1009F0002171D22201900846039900F075F9009008
:100A0000E4E700000000000080B586B001460590D4
:100A10000120ADF81200029104F022FA07F05CFB0D
:100A2000FFF77EFF08F040F80390FFE705F0A0FB1A
:100A3000DDF80CE00EF1010ECDF80CE0039807F0A4
:100A4000DFFF0190F2E7000080B586B00146059017
:100A50000391FFE707F010FB8DF813009DF81300DA
:100A600000280FD0FFE79DF81300012808D1FFE709
:100A70004BF6F850C0F600000AF03AFC029000E095
:100A8000FFE7FFE7142007F08BFF0190E2E700008B
:100A9000FFE7FEE70000000083B04EF61450CEF2F0
:100AA000000000688003002801D5FFE71AE0BFF3CB
:100AB0004F8FBFF36F8F4EF65070CEF200000021C3
:100AC0000160BFF34F8FBFF36F8F4EF61450CEF21D
:100AD0000000016841F400310160BFF34F8FBFF3A4
:100AE0006F8FFFE74EF61450CEF200000068C0038F
:100AF000002801D5FFE73CE04EF68450CEF200001E
:100B000000210160BFF34F8F4EF68050CEF20000FF
:100B1000006802900298C0F34E300190FFE70298FF
:100B2000C0F3C9000090FFE701980099890760F3BE
:100B30004D114EF66070CEF2000001600098411E2B
:100B400000910028F0D1FFE70198411E0191002893
:100B5000E5D1FFE7BFF34F8F4EF61450CEF2000001
:100B6000016841F480310160BFF34F8FBFF36F8F95
:100B7000FFE703B07047000080B584B001468DF8F0
:100B80000B009DF80B000028019106D1FFE741F210
:100B90002410C2F20000039045E09DF80B000128EC
:100BA00003D1FFE7002003903DE09DF80B000228F1
:100BB00006D1FFE741F25010C2F20000039032E08C
:100BC0009DF80B00032803D1FFE7002003902AE0E3
:100BD0009DF80B00042803D1FFE70020039022E0DA
:100BE0009DF80B00052803D1FFE7002003901AE0D1
:100BF0009DF80B00062803D1FFE70020039012E0C8
:100C00009DF80B00072803D1FFE7002003900AE0BE
:100C10004BF69160C0F600004FF48E7100F00CF8B6
:100C200000200390FFE7039804B080BD000000009F
:100C3000704700000000000084B00A46034603909D
:100C40000291029800280192009302D1FFE704B0BC
:100C50007047FFE7FEE7000083B00146029041F2D3
:100C60000060C2F2000000780028009103D1FFE785
:100C7000002001900FE00298C0F3C62141F280529B
:100C8000C2F20002515CC0F3022021FA00F000F031
:100C900001000190FFE7019803B0704700000000D9
:100CA00080B584B0FFE741F20060C2F200008069C5
:100CB000019000F0B1FA0390039806F025FF02902E
:100CC000FFE7029801998842EDD1FFE70398029966
:100CD000884203D2FFE704F097FBFFE7039804B0D4
:100CE00080BD00000000000080B58AB013468C462D
:100CF000864607900691059207980293CDF804C0A6
:100D0000CDF800E0FFF7A8FF002803D1FFE701209E
:100D100008901EE0FFF7C4FF0490BDF81C00079088
:100D2000EFF3058009900998DDF81CE04EF40021EE
:100D3000002818BF8E46CDF81CE0079840F04070A0
:100D40000499069A059B00F063F8039003980890B5
:100D5000FFE708980AB080BD70B58EB0DDF848C0D6
:100D60009E4614460D4606460B900A91099208933A
:100D70000B98CDF810C0CDF80CE0029401950096C8
:100D8000FFF76AFF002803D1FFE701200C903AE04B
:100D9000FFF786FF0790BDF82C000B90EFF305805E
:100DA0000D900D98DDF82CE04EF40021002818BFBE
:100DB0008E46CDF82CE001F093F84FF4E02101EAE3
:100DC000004006900B98069940EA010040F08070C0
:100DD00007990A9A099B00F01BF8059005980028CE
:100DE00003D1FFE700200C900DE006980121C0F22E
:100DF000002108430799089A129B00F009F8059012
:100E000005980C90FFE70C980EB070BD0000000034
:100E1000B0B590B09C4696460C4605460E900D9196
:100E20000C920B9307200990CDF810C0CDF80CE080
:100E300002940195FFE70998002870D0FFE701F0C0
:100E40005BF80890089800F03F0041F2801EC2F263
:100E5000000E0EEB00100A9008984FF4700E0EEA88
:100E6000803005900E98DDF814E040EA0E00DDF8C1
:100E700034E04FF0805101EADE0108430C994FF055
:100E8000005E0EEA910108430B994FF0804E0EEA86
:100E90005101084340F0406007900A980C300799D0
:100EA00004F032FD07909DF81F004007002831D55F
:100EB000FFE7079880F080600790079880F0004077
:100EC0000790079800F0004006900D9820F0004031
:100ED000069908430A9908600C9820F0004006998A
:100EE00008430A9948600B9820F00040069908438F
:100EF0000A9988600A980C30079906F0E5FD0028E9
:100F000007D0FFE704F098FA4FF0010ECDF83CE06F
:100F10000CE004E0FFE70998013809908BE704F042
:100F20007FFA4FF0000ECDF83CE0FFE70F9810B0CD
:100F3000B0BD00000000000080B58AB013468C46AA
:100F400086460890079106920798FE280293CDF8EE
:100F500004C0CDF800E004D8FFE70698FF2803D3CB
:100F6000FFE70020099038E0002005900490FFE79B
:100F7000049803282ED8FFE708980499012202FA62
:100F800001F108421ED0FFE707980390FFE703989E
:100F90000699884215D8FFE7039800F0070101225F
:100FA00002FA01F1059A02EBD00041F28052C2F23E
:100FB0000002135C19431154FFE7039801300390BA
:100FC000E5E7FFE7059820300590FFE7049801303A
:100FD0000490CDE701200990FFE709980AB080BD91
:100FE00080B592B00A4603461190109141F200601C
:100FF000C2F200000021017041F28051C2F20001F2
:101000004FF0800C09900846614608920793FFF75D
:101010000BFA4BF69440C0F60000182107F008FBCD
:10102000ADF83A000998016A42F26B72CEF2A5124D
:1010300091420FD0FFE741F20060C2F2000042F29D
:101040006B71CEF2A5110162BDF83A104180012109
:10105000C1611CE041F20060C2F200004088BDF8AE
:101060003A1088420AD0FFE7BDF83A0041F2006129
:10107000C2F2000148800120C86107E041F200602F
:10108000C2F20000C1690131C161FFE7FFE741F22F
:101090000060C2F20000C069012812D1FFE741F2EE
:1010A0000060C2F200000021417041608160C160B7
:1010B00041F28010C2F200004FF48061FFF7B4F9F2
:1010C00020E000200A90FFE70A983F2819D8FFE7A0
:1010D0000A9841F28011C2F2000101EB00100F905A
:1010E0000F98C07B4007002806D5FFE70F98C1681E
:1010F00021F04061C160FFE7FFE70A9801300A90E4
:10110000E2E7FFE741F20060C2F20000C069012897
:1011100018D1FFE700F090F80C900C98002804D04C
:10112000FFE700F081F80D9002E000200D90FFE74E
:101130000D9841F20061C2F200014861002088610F
:10114000086103E000F078F80C90FFE70C980028A5
:1011500030D0FFE711980021FE2206910592FFF79B
:10116000EBFE0F21EF22049008461146FFF7E4FE44
:101170000421039008460599059AFFF7DDFE0290C9
:10118000FFF78EFD0B900B9941F20060C2F2000058
:10119000C2694FF60070C0F20030069BFFF738FEC0
:1011A00010990029019004D0FFE700F009F80090A1
:1011B000FFE7FFE70C9812B080BD000000000000C0
:1011C00080B584B041F20060C2F2000000780028CF
:1011D00003D0FFE70120039018E041F20060C2F263
:1011E0000000012101700191FFF75AFD0290029960
:1011F0004FF60170C0F200304FF0000E7246734699
:10120000FFF706FE019903910090FFE7039804B0F1
:1012100080BD00000000000041F20400CEF200009A
:10122000006870470000000040F20400C2F20000B5
:1012300000687047000000004EF6FC50CEF200003F
:10124000016841F08071016041F20000CEF20000BF
:10125000016841F0010101600120704700000000B9
:1012600080B584B00146039003984FF20132C0F27A
:101270000102002302901046029A019111461A467B
:10128000FFF732FD009004B080BD000000000000B8
:1012900080B584B00146039003984FF20532C0F246
:1012A0000202002302901046029A019111461A464A
:1012B000FFF71AFD009004B080BD000000000000A0
:1012C00080B584B00146039003984FF47342002325
:1012D00002901046029A019111461A46FFF704FD4A
:1012E000009004B080BD000080B584B0014603903A
:1012F00003984FF20332C0F202020023029010461C
:10130000029A019111461A46FFF7EEFC009004B0D4
:1013100080BD00000000000080B584B0014603904D
:1013200003984FF20232C0F20102002302901046ED
:10133000029A019111461A46FFF7D6FC009004B0BC
:1013400080BD00000000000080B584B0014603901D
:1013500003984FF20432C0F20202002302901046BA
:10136000029A019111461A46FFF7BEFC009004B0A4
:1013700080BD00000000000080B584B001460390ED
:1013800003984FF20D52C0F2020200230290104661
:10139000029A019111461A46FFF7A6FC009004B08C
:1013A00080BD00000000000080B584B001460390BD
:1013B00003984FF47142002302901046029A019163
:1013C00011461A46FFF790FC009004B080BD000063
:1013D00080B584B00146039003984FF20612C0F224
:1013E0000102002302901046029A019111461A460A
:1013F000FFF77AFC009004B080BD00000000000000
:1014000080B584B00146039003984FF21312C0F2E6
:101410000102002302901046029A019111461A46D9
:10142000FFF762FC009004B080BD000000000000E7
:1014300080B582B04FF20110C0F20100002101918D
:10144000019AFFF751FC009002B080BD000000003F
:1014500080B582B04FF20210C0F20200002101916B
:10146000019AFFF741FC009002B080BD000000002F
:1014700080B582B04FF20710C0F201000021019147
:10148000019AFFF731FC009002B080BD000000001F
:1014900080B582B04FF20810C0F202000021019125
:1014A000019AFFF721FC009002B080BD000000000F
:1014B00070B58AB09C4696460C4605460990089140
:1014C000079206930999089A079B06986E46306022
:1014D0004FF20100C0F20200CDF814C0CDF810E0C8
:1014E00003940295FFF738FC01900AB070BD00002C
:1014F00080B586B00A460346059004910599049884
:101500004FF2040CC0F2020C03906046DDF80CC0F0
:10151000029262460193FFF7E7FB009006B080BDA0
:10152000B0B58AB013468C4686460990089107925A
:101530000999089A07986C46002525604FF2050422
:10154000C0F2020406902046069C05932346CDF87F
:1015500010C0CDF80CE0FFF7FFFB02900AB0B0BD61
:1015600070B58AB09C4696460C460546099008918F
:10157000079206930999089A079B06986E46306071
:101580004FF20300C0F20200CDF814C0CDF810E015
:1015900003940295FFF7E0FB01900AB070BD0000D4
:1015A000B0B58AB013468C468646099008910792DA
:1015B0000999089A07986C46002525604FF20204A5
:1015C000C0F2020406902046069C05932346CDF8FF
:1015D00010C0CDF80CE0FFF7BFFB02900AB0B0BD21
:1015E000B0B58AB013468C4686460990089107929A
:1015F0000999089A07986C46002525604FF43C34F9
:1016000006902046069C05932346CDF810C0CDF8E1
:101610000CE0FFF7A1FB02900AB0B0BD0000000093
:1016200080B584B00146039003984FF60812C0F2CB
:101630000202002302901046029A019111461A46B6
:10164000FFF752FB009004B080BD000000000000D6
:1016500080B586B00A460346059004910599049822
:101660004FF6032CC0F2020C03906046DDF80CC06C
:10167000029262460193FFF737FB009006B080BDEF
:1016800080B586B00A4603460590049105990498F2
:101690004FF47A4C03906046DDF80CC0029262462B
:1016A0000193FFF721FB009006B080BD0000000011
:1016B00070B58AB09C4696460C460546099008913E
:1016C000079206930999089A079B06986E46306020
:1016D0004FF60C20C0F20100CDF814C0CDF810E098
:1016E00003940295FFF738FB01900AB070BD00002B
:1016F000B0B58AB013468C46864609900891079289
:101700000999089A07986C46002525604FF60D2424
:10171000C0F2020406902046069C05932346CDF8AD
:1017200010C0CDF80CE0FFF717FB02900AB0B0BD77
:1017300080B584B00146039003984FF60E22C0F2A4
:101740000202002302901046029A019111461A46A5
:10175000FFF7CAFA009004B080BD0000000000004E
:1017600080B586B00A460346059004910599049811
:101770004FF6092CC0F2020C03906046DDF80CC055
:10178000029262460193FFF7AFFA009006B080BD67
:1017900080B586B00A4603460590049105990498E1
:1017A0004FF60A2CC0F2020C03906046DDF80CC024
:1017B000029262460193FFF797FA009006B080BD4F
:1017C000B0B58AB013468C468646099008910792B8
:1017D0000999089A07986C46002525604FF6012460
:1017E000C0F2010406902046069C05932346CDF8DE
:1017F00010C0CDF80CE0FFF7AFFA02900AB0B0BD10
:1018000080B586B00A460346059004910599049870
:101810004FF60B2CC0F2020C03906046DDF80CC0B2
:10182000029262460193FFF75FFA009006B080BD16
:1018300080B586B00A460346059004910599049840
:101840004FF6102CC0F2020C03906046DDF80CC07D
:10185000029262460193FFF747FA009006B080BDFE
:1018600070B58AB09C4696460C460546099008918C
:101870008DF81F2006930999089A9DF81F30069845
:101880006E4630604FF60620C0F20100CDF814C05D
:10189000CDF810E003940295FFF75EFA01900AB0CC
:1018A00070BD000000000000B0B58AB013468C4641
:1018B00086460990089107920999089A07986C46FC
:1018C000002525604FF60724C0F20204069020464A
:1018D000069C05932346CDF810C0CDF80CE0FFF729
:1018E0003BFA02900AB0B0BD80B584B001460390C7
:1018F00003984FF60822C0F202020023029010461D
:10190000029A019111461A46FFF7EEF9009004B0D1
:1019100080BD00000000000080B586B00A46034686
:1019200005900491059904984FF60F2CC0F2020C13
:1019300003906046DDF80CC0029262460193FFF707
:10194000D3F9009006B080BD80B584B00146039005
:1019500003984FF20872C0F2020200230290104670
:10196000029A019111461A46FFF7BEF9009004B0A1
:1019700080BD00000000000080B586B00A46034626
:1019800005900491059904984FF2097CC0F2020C6D
:1019900003906046DDF80CC0029262460193FFF7A7
:1019A000A3F9009006B080BD80B586B00A46034614
:1019B00005900491059904984FF20C7CC0F2020C3A
:1019C00003906046DDF80CC0029262460193FFF777
:1019D0008BF9009006B080BD80B584B001460390BD
:1019E00003984FF60802C0F202020023029010464C
:1019F000029A019111461A46FFF776F9009004B059
:101A000080BD00000000000080B586B00A46034695
:101A100005900491059904984FF2162CC0F2030C1E
:101A200003906046DDF80CC0029262460193FFF716
:101A30005BF9009006B080BD80B588B013468C4637
:101A40008646079006910592059800280493CDF8E4
:101A50000CC0CDF808E00AD0FFE70799059A4FF2CD
:101A60002C20C0F20200FFF73FF9019009E007992E
:101A7000069A4FF20320C0F20200FFF735F90090FA
:101A8000FFE708B080BD000080B584B00146039038
:101A900003984FF21C22C0F202020023029010466B
:101AA000029A019111461A46FFF71EF9009004B000
:101AB00080BD00000000000080B586B00A460346E5
:101AC00005900491059904984FF4724C0390604678
:101AD000DDF80CC0029262460193FFF705F9009011
:101AE00006B080BD0000000080B582B04FF21A2021
:101AF000C0F2010000210191019AFFF7F5F8009072
:101B000002B080BD0000000070B58AB09C469646C9
:101B10000C46054609900891079206930999089A80
:101B2000079B06986E4630604FF20940C0F20200F3
:101B3000CDF814C0CDF810E003940295FFF70CF92E
:101B400001900AB070BD000080B584B001460390DA
:101B500003984FF20842C0F202020023029010469E
:101B6000029A019111461A46FFF7BEF8009004B0A0
:101B700080BD00000000000080B584B001460390E5
:101B800003984FF21522C0F2020200230290104681
:101B9000029A019111461A46FFF7A6F8009004B088
:101BA00080BD000000000000B0B58AB013468C462E
:101BB00086460990089107920999089A07986C46F9
:101BC000002525604FF20124C0F201040690204652
:101BD000069C05932346CDF810C0CDF80CE0FFF726
:101BE000BBF802900AB0B0BD80B584B00146039046
:101BF00003984FF21822C0F203020023029010460D
:101C0000029A019111461A46FFF76EF8009004B04F
:101C100080BD00000000000080B584B00146039044
:101C200003984FF21922C0F20202002302901046DC
:101C3000029A019111461A46FFF756F8009004B037
:101C400080BD00000000000080B586B00A46034653
:101C500005900491059904984FF2172CC0F2030CDB
:101C600003906046DDF80CC0029262460193FFF7D4
:101C70003BF8009006B080BD80B586B00A460346AA
:101C800005900491059904984FF2016CC0F2020C82
:101C900003906046DDF80CC0029262460193FFF7A4
:101CA00023F8009006B080BDB0B589B09C4696463A
:101CB0000C46054608900791069205930020049073
:101CC0000598B0F5804FCDF80CC0CDF808E0019430
:101CD000009522D1FFE70898069950F8210004905A
:101CE00004980021CCF6F071084004900798016830
:101CF00042688368D0F80CC041EA021141EA03212E
:101D000041EA0C418069084304990843049004980F
:101D10000899069A41F8220006E0089806996FF0A3
:101D2000704240F82120FFE7002009B0B0BD00005C
:101D300010B585B00A460346049003910020029036
:101D400004980399096850F821000290029840F223
:101D50008041CFF6C0710840029003984168D0F8E6
:101D600008C0D0F80CE0046941EA0C0141EA0E0118
:101D70002143D0F814C041EA0C01D0F818C041EA60
:101D80000C01D0F81CC041EA0C01D0F820C041EA97
:101D90000C01D0F824C041EA0C01D0F828C041EA77
:101DA0000C01D0F82CC041EA0C01D0F830C041EA57
:101DB0000C01D0F838C041EA0C01406B084302998D
:101DC000084302900398806808280192009305D187
:101DD000FFE7029840F040000290FFE70298049964
:101DE000039A126841F822000398006BB0F5801F37
:101DF0000CD1FFE703980068002807D0FFE703989D
:101E0000006B04990A6810430860FFE703980068B4
:101E1000002807D0FFE70398406B04990A68104335
:101E20000860FFE7002005B010BD000000000000C2
:101E3000B0B587B013468C4686460690059104924D
:101E4000002003900698049900EB810040680390FD
:101E5000039800F040400390059801684268846848
:101E6000C56841EA021141EA042141EA05410269DB
:101E70000024CFF6F07404EB025211434269FE32A3
:101E800041EA02618069084303990843039003987B
:101E90000699049A01EB8201486006980068C00226
:101EA00000280293CDF804C0CDF800E013D5FFE779
:101EB0000698406820F4700003900598006900219E
:101EC000CFF6F07101EB005003990843039003989B
:101ED00006994860FFE7002007B0B0BD0000000091
:101EE00080B541F20060C2F20000013005F09CFFB5
:101EF00080BD00000000000080B541F20060C2F229
:101F00000000043005F07CFF80BD000000000000F0
:101F100040F22040C5F60000016841F00101016077
:101F2000704700000000000094B00A46034613907A
:101F300012910020119010900F900E908021C5F604
:101F400000010D9111900B920A93FFE711980F2851
:101F500000F2DC81FFE71198012101FA00F01090F6
:101F600012980068109908400F900F9810998842B5
:101F700040F0C781FFE712984068022805D0FFE7CC
:101F800012984068122826D1FFE7139811996FF034
:101F9000030202EA51010844006A0E90119800F011
:101FA000070080000F2101FA00F00E9921EA0000DD
:101FB0000E9012980069119901F00701890088407C
:101FC0000E9908430E900E981399119B02EA530242
:101FD00011440862FFE7139800680E9011984000C2
:101FE000032101FA00F00E9921EA00000E901298E8
:101FF000406800F003001199490088400E99084399
:102000000E900E98139908601298406801280FD01E
:10201000FFE71298406802280AD0FFE7129840684C
:10202000112805D0FFE71298406812282FD1FFE74A
:10203000139880680E9011984000032101FA00F077
:102040000E9921EA00000E901298C068119949007B
:1020500088400E9908430E900E9813998860139843
:1020600040680E901198012101FA00F00E9921EAC2
:1020700000000E9012984068C0F30010119988403B
:102080000E9908430E900E9813994860FFE7139835
:10209000C0680E9011984000032101FA00F00E99DB
:1020A00021EA00000E90129880681199490088403A
:1020B0000E9908430E900E981399C86012984068C4
:1020C000C000002840F11C81FFE7FFE744F2F44024
:1020D000C5F60200016841F002010160006800F0ED
:1020E00002000C900C980990FFE7119820F0030073
:1020F00040F20841C5F6000140580E90119800F0DA
:10210000030080000F2101FA00F00E9921EA00007F
:102110000E9013980021C5F60201884203D1FFE713
:10212000002008907AE0139840F20041C5F60201C1
:10213000884203D1FFE7012007906CE0139840F636
:102140000001C5F60201884203D1FFE70220069094
:102150005EE0139840F60041C5F60201884203D1C3
:10216000FFE70320059050E0139841F20001C5F607
:102170000201884203D1FFE70420049042E0139853
:1021800041F20041C5F60201884203D1FFE7052074
:10219000039034E0139841F60001C5F6020188422D
:1021A00003D1FFE70620029026E0139841F6004194
:1021B000C5F60201884203D1FFE70720019018E02D
:1021C000139842F20001C5F60201884203D1FFE7ED
:1021D000082000900AE0139842F20041C5F602017F
:1021E0000A22884208BF09220092FFE70098019066
:1021F000FFE701980290FFE702980390FFE703983A
:102200000490FFE704980590FFE705980690FFE724
:1022100006980790FFE707980890FFE70898C0B274
:10222000119901F00301890088400E9908430E902E
:102230000E98119921F0030140F20842C5F6000200
:1022400088500D9800680E900F980E9921EA0000B2
:102250000E9012984068C003002805D5FFE70F983C
:102260000E9908430E90FFE70E980D9908600D989F
:1022700040680E900F980E9921EA00000E90129877
:1022800040688003002805D5FFE70F980E990843A2
:102290000E90FFE70E980D9948604FF0B04000682F
:1022A0000E900F980E9921EA00000E901298406847
:1022B000C002002805D5FFE70F980E9908430E903D
:1022C000FFE70E984FF0B04108600420C5F600000B
:1022D00000680E900F980E9921EA00000E90129857
:1022E00040688002002805D5FFE70F980E99084343
:1022F0000E90FFE70E980421C5F600010860FFE785
:10230000FFE7FFE71198013011901FE614B0704706
:1023100080B582B006F0A4FB022804D1FFE706F0E6
:10232000C3FB019025E040F20400C2F20000006807
:10233000800B0090FFE70098002811D0FFE700BF56
:1023400000BF00BF00BF00BF00BF00BF00BF00BF95
:1023500000BF00BF00BFFFE7009801380090EAE728
:1023600040F2C000C2F20000016801310160019139
:10237000FFE7019802B080BD80B582B0032000F075
:10238000DFF8012000F014F8002804D0FFE7012056
:102390008DF8070006E000F08FF84FF0000E8DF882
:1023A00007E0FFE79DF8070002B080BD00000000D5
:1023B00082B0014601900020009102B070470000F9
:1023C00080B582B001460190019840784EF698524F
:1023D000CEF20002106001980078002800912BD006
:1023E000FFE7019840684EF69C51CEF2000108606C
:1023F0000198017B0907C27A41EA02610278037AF7
:1024000090F809C090F80AE041EACE4190F80DE05A
:1024100041EA8E4190F80EE041EA4E41C07B41EA2C
:10242000004040EA0C2040EA430010434EF6A05121
:10243000CEF2000108600BE04EF69C50CEF2000098
:10244000002101604EF6A050CEF200000160FFE7CF
:1024500002B080BD00000000BFF35F8F4EF6245035
:10246000CEF20000016821F4803101604EF69450F4
:10247000CEF2000000210160704700000000000063
:1024800082B001460190019840F001004EF694524E
:10249000CEF2000210604EF62450CEF20000026828
:1024A00042F480320260BFF34F8FBFF36F8F009111
:1024B00002B070470000000082B0FFE744F2F44031
:1024C000C5F60200016841F002010160006800F0F9
:1024D0000200019001980090FFE702B070470000F1
:1024E00080B582B00146ADF80600BDF90600009146
:1024F00005F022FB02B080BD80B58AB013468C4641
:102500008646ADF82600089107920593CDF810C0D5
:10251000CDF80CE005F02CFB0690BDF926000699DD
:10252000089A079B0290084611461A4603F030FBB2
:10253000029901900846019905F02AFB0AB080BD76
:1025400080B582B0014601900198009105F048FBEA
:1025500002B080BD0000000080B584B001F0A8FD8D
:1025600044F2184EC5F6020EDEF800E00EF4706E6E
:102570004FF400010291029900290190CDF800E08A
:1025800004D1FFE720208DF80F0005E00298B0FA93
:1025900080F08DF80F00FFE79DF80F00009921FAF9
:1025A00000F04BF68442C0F60002105C019A22FA59
:1025B00000F040F20403C2F200031860186804B08F
:1025C00080BD00000000000080B584B001F0D8FCA0
:1025D00044F2204EC5F6020EDEF800E00EF0700E5A
:1025E0004FF000610291029900290190CDF800E0BE
:1025F00004D1FFE720208DF80F0005E00298B0FA23
:1026000080F08DF80F00FFE79DF80F00009921FA88
:1026100000F04BF68442C0F60002105C019A22FAE8
:1026200000F004B080BD000089B001460890002091
:10263000079001220692059004900390029044F2C4
:102640002840C5F60200026802F003020792006803
:10265000C0F30530069044F22C40C5F60200006835
:1026600000F010000590059844F23C42C5F60202C5
:10267000126892B2D208504300EE100AB8EE400A37
:102680008DED030A079800280191009009D0FFE71B
:10269000009801286BD0FFE70098022800F08E8098
:1026A000B3E044F20040C5F60200006800F02000EC
:1026B0000021B1EB501F32D0FFE744F20040C5F6D5
:1026C00002000068C0F3C10049F20001C0F2D0313D
:1026D00021FA00F0049004980699B0FBF1F000EEA6
:1026E000100AB8EE400A44F23840C5F6020000680D
:1026F0006FF35F2001EE100AB8EE411A9DED032A38
:102700009FED733A82EE032A31EE021AB7EE002AE9
:1027100031EE021A20EE010A8DED020A26E006983B
:1027200049F20001C0F2D031B1FBF0F000EE100A26
:10273000B8EE400A44F23840C5F6020000686FF374
:102740005F2001EE100AB8EE411A9DED032A9FEDBD
:10275000603A82EE032A31EE021AB7EE002A31EE19
:10276000021A20EE010A8DED020AFFE774E00698D6
:1027700040F60011C0F23D01B1FBF0F000EE100A8E
:10278000B8EE400A44F23840C5F6020000686FF324
:102790005F2001EE100AB8EE411A9DED032A9FED6D
:1027A0004C3A82EE032A31EE021AB7EE002A31EEDD
:1027B000021A20EE010A8DED020A4DE0069847F656
:1027C0004001C0F27D11B1FBF0F000EE100AB8EE4E
:1027D000400A44F23840C5F6020000686FF35F20FB
:1027E00001EE100AB8EE411A9DED032A9FED383A2A
:1027F00082EE032A31EE021AB7EE002A31EE021AF7
:1028000020EE010A8DED020A26E0069840F600113E
:10281000C0F23D01B1FBF0F000EE100AB8EE400A44
:1028200044F23840C5F6020000686FF35F2001EE05
:10283000100AB8EE411A9DED032A9FED253A82EE6B
:10284000032A31EE021AB7EE002A31EE021A20EE08
:10285000010A8DED020AFFE79DED020A44F23840BD
:10286000C5F60200016889B2012202EB512101EE96
:10287000101AB8EE411A80EE010A0899BCEEC00A9F
:1028800081ED000A9DED020A016801F4FE0102EBF0
:10289000114101EE101AB8EE411A80EE010A0899B2
:1028A000BCEEC00A81ED010A9DED020A006800F04D
:1028B000FE4002EB106001EE100AB8EE411A80EE05
:1028C000010A0898BCEEC00A80ED020A09B0704700
:1028D000000000460000000089B00146089000207A
:1028E000079001220692059004900390029044F212
:1028F0002840C5F60200026802F003020792006851
:10290000C0F30550069044F22C40C5F60200006862
:1029100000F480700590059844F24442C5F6020226
:10292000126892B2D208504300EE100AB8EE400A84
:102930008DED030A079800280191009009D0FFE768
:10294000009801286BD0FFE70098022800F08E80E5
:10295000B3E044F20040C5F60200006800F0200039
:102960000021B1EB501F32D0FFE744F20040C5F622
:1029700002000068C0F3C10049F20001C0F2D0318A
:1029800021FA00F0049004980699B0FBF1F000EEF3
:10299000100AB8EE400A44F24040C5F60200006852
:1029A0006FF35F2001EE100AB8EE411A9DED032A85
:1029B0009FED733A82EE032A31EE021AB7EE002A37
:1029C00031EE021A20EE010A8DED020A26E0069889
:1029D00049F20001C0F2D031B1FBF0F000EE100A74
:1029E000B8EE400A44F24040C5F6020000686FF3BA
:1029F0005F2001EE100AB8EE411A9DED032A9FED0B
:102A0000603A82EE032A31EE021AB7EE002A31EE66
:102A1000021A20EE010A8DED020AFFE774E0069823
:102A200040F60011C0F23D01B1FBF0F000EE100ADB
:102A3000B8EE400A44F24040C5F6020000686FF369
:102A40005F2001EE100AB8EE411A9DED032A9FEDBA
:102A50004C3A82EE032A31EE021AB7EE002A31EE2A
:102A6000021A20EE010A8DED020A4DE0069847F6A3
:102A70004001C0F27D11B1FBF0F000EE100AB8EE9B
:102A8000400A44F24040C5F6020000686FF35F2040
:102A900001EE100AB8EE411A9DED032A9FED383A77
:102AA00082EE032A31EE021AB7EE002A31EE021A44
:102AB00020EE010A8DED020A26E0069840F600118C
:102AC000C0F23D01B1FBF0F000EE100AB8EE400A92
:102AD00044F24040C5F6020000686FF35F2001EE4B
:102AE000100AB8EE411A9DED032A9FED253A82EEB9
:102AF000032A31EE021AB7EE002A31EE021A20EE56
:102B0000010A8DED020AFFE79DED020A44F2404002
:102B1000C5F60200016889B2012202EB512101EEE3
:102B2000101AB8EE411A80EE010A0899BCEEC00AEC
:102B300081ED000A9DED020A016801F4FE0102EB3D
:102B4000114101EE101AB8EE411A80EE010A0899FF
:102B5000BCEEC00A81ED010A9DED020A006800F09A
:102B6000FE4002EB106001EE100AB8EE411A80EE52
:102B7000010A0898BCEEC00A80ED020A09B070474D
:102B8000000000460000000080B59EB001461C9089
:102B900000208DF867008DF866001C980068000121
:102BA000002818914DD5FFE71C98406E002817901B
:102BB0000FD0FFE71798B0F5801F13D0FFE71798E5
:102BC000B0F5001F16D0FFE71798B0F5401F19D0D9
:102BD00019E044F22C40C5F60200016841F40031CE
:102BE000016014E01C980430022103F085F88DF890
:102BF00067000CE01C982430022103F055F98DF891
:102C0000670004E003E001208DF86700FFE79DF80E
:102C1000670000280CD1FFE744F25040C5F60200DF
:102C2000016821F440111C9A526E1143016007E0C3
:102C30009DF867009DF8661008438DF86600FFE771
:102C4000FFE71C980068C005002844D5FFE71C98E2
:102C5000406D0428169020D81699DFE801F0030C87
:102C6000141C1D0044F22C40C5F60200016841F41A
:102C70000031016015E01C980430002103F03CF89D
:102C80008DF867000DE01C982430002103F00CF94A
:102C90008DF8670005E004E003E001208DF867008F
:102CA000FFE79DF8670000280CD1FFE744F2504091
:102CB000C5F60200016821F007011C9A526D11430C
:102CC000016007E09DF867009DF8661008438DF8E5
:102CD0006600FFE7FFE71C9800688005002850D5D4
:102CE000FFE71C98806D0028159011D0FFE715981C
:102CF000402816D0FFE7159880281AD0FFE71598CE
:102D0000C0281ED0FFE71598B0F5807F1AD01AE0D2
:102D100044F22C40C5F60200016841F40031016024
:102D200015E01C980430002102F0E6FF8DF86700E2
:102D30000DE01C982430002103F0B6F88DF86700F0
:102D400005E004E003E001208DF86700FFE79DF84F
:102D5000670000280CD1FFE744F25040C5F602009E
:102D6000016821F4E0711C9A926D1143016007E043
:102D70009DF867009DF8661008438DF86600FFE730
:102D8000FFE71C9800684005002855D5FFE71C9810
:102D9000D0F8A4000028149014D0FFE71498B0F5E0
:102DA000001F18D0FFE71498B0F5800F1BD0FFE785
:102DB0001498B0F5C00F1ED0FFE71498B0F5000FBF
:102DC0001AD01AE044F22C40C5F60200016841F422
:102DD0000031016015E01C980430002102F08CFFE6
:102DE0008DF867000DE01C982430002103F05CF89A
:102DF0008DF8670005E004E003E001208DF867002E
:102E0000FFE79DF8670000280DD1FFE744F2584026
:102E1000C5F60200016821F460011C9AD2F8A420D2
:102E20001143016007E09DF867009DF866100843B4
:102E30008DF86600FFE7FFE71C9800680005002892
:102E400055D5FFE71C98D0F8A8000028139014D09F
:102E5000FFE71398B0F1807F18D0FFE71398B0F127
:102E6000007F1BD0FFE71398B0F1407F1ED0FFE733
:102E70001398B0F1806F1AD01AE044F22C40C5F6D6
:102E80000200016841F40031016015E01C98043033
:102E9000002102F031FF8DF867000DE01C9824300E
:102EA000002103F001F88DF8670005E004E003E07D
:102EB00001208DF86700FFE79DF8670000280DD11D
:102EC000FFE744F25840C5F60200016821F0E061D6
:102ED0001C9AD2F8A8201143016007E09DF8670012
:102EE0009DF8661008438DF86600FFE7FFE71C9821
:102EF00000688001002843D5FFE71C98806C0028FB
:102F000012901ED0FFE71298102808D0FFE7129801
:102F100020280DD0FFE71298302811D012E044F29B
:102F20002C40C5F60200016841F4003101600DE05B
:102F30001C980430022102F0DFFE8DF8670005E0E6
:102F400004E003E001208DF86700FFE79DF86700CB
:102F500000280CD1FFE744F24C40C5F6020001689E
:102F600021F030011C9A926C1143016007E09DF83A
:102F700067009DF8661008438DF86600FFE7FFE7DD
:102F80001C980068C004002853D5FFE71C98C06D4A
:102F90000028119014D0FFE71198B0F5805F18D089
:102FA000FFE71198B0F5005F1BD0FFE71198B0F56F
:102FB000405F1ED0FFE71198B0F5804F1AD01AE09D
:102FC00044F22C40C5F60200016841F40031016072
:102FD00015E01C980430002102F08EFE8DF8670089
:102FE0000DE01C982430002102F05EFF8DF8670090
:102FF00005E004E003E001208DF86700FFE79DF89D
:10300000670000280CD1FFE744F25040C5F60200EB
:10301000016821F4E0411C9AD26D1143016007E080
:103020009DF867009DF8661008438DF86600FFE77D
:10303000FFE71C9800688004002851D5FFE71C9822
:10304000006E0028109019D0FFE71098B0F5803F6F
:1030500015D0FFE71098B0F5003F18D0FFE71098A3
:10306000B0F5403F1BD0FFE71098B0F5802F17D088
:10307000FFE71098B0F5A02F13D013E016E01C98CE
:103080000430012102F038FE8DF867000EE01C9834
:103090002430012102F008FF8DF8670006E005E00A
:1030A00004E003E001208DF86700FFE79DF867006A
:1030B00000280CD1FFE744F25040C5F60200016839
:1030C00021F4E0211C9A126E1143016007E09DF883
:1030D00067009DF8661008438DF86600FFE7FFE77C
:1030E0001C9800684004002853D5FFE71C98D0F8CE
:1030F000AC0000280F9019D0FFE70F98B0F1805F67
:1031000015D0FFE70F98B0F1005F18D0FFE70F98D8
:10311000B0F1405F1BD0FFE70F98B0F1804F17D0A0
:10312000FFE70F98B0F1A04F13D013E016E01C9802
:103130000430012102F0E0FD8DF867000EE01C98DC
:103140002430012102F0B0FE8DF8670006E005E0B2
:1031500004E003E001208DF86700FFE79DF86700B9
:1031600000280DD1FFE744F25840C5F6020001687F
:1031700021F0E0411C9AD2F8AC201143016007E035
:103180009DF867009DF8661008438DF86600FFE71C
:10319000FFE71C9800680004002840D5FFE71C9852
:1031A000C06E00280E901BD0FFE70E98B0F1805F34
:1031B00005D0FFE70E98B0F1005F09D011E044F2AE
:1031C0002C40C5F60200016841F4003101600CE0BA
:1031D0001C980430012102F08FFD8DF8670004E097
:1031E00003E001208DF86700FFE79DF867000028E5
:1031F0000CD1FFE744F25040C5F60200016821F00F
:1032000040511C9AD26E1143016007E09DF867009F
:103210009DF8661008438DF86600FFE7FFE71C98ED
:103220000068C00100283BD5FFE71C98406C0328CC
:103230000D9017D80D99DFE801F014020B1344F23A
:103240002C40C5F60200016841F4003101600DE038
:103250001C980430022102F04FFD8DF8670005E054
:1032600004E003E001208DF86700FFE79DF86700A8
:1032700000280CD1FFE744F24C40C5F6020001687B
:1032800021F003011C9A526C1143016007E09DF884
:1032900067009DF8661008438DF86600FFE7FFE7BA
:1032A0001C9800684002002840F1C380FFE744F604
:1032B0000000C5F60200016841F480710160FFF76B
:1032C00027F81A90FFE744F60000C5F602000068F0
:1032D000C00500280ED4FFE7FFF71AF8DDF868E014
:1032E000A0EB0E00652804D3FFE703208DF86700EC
:1032F00000E0E8E79DF86700002840F09180FFE7D4
:1033000044F27040C5F60200006800F440701C9959
:10331000D1F8B01001F44071884213D0FFE744F2B5
:103320007040C5F60200016821F440711B910168EC
:1033300041F480310160016821F4803101601B9902
:103340000160FFE71C98D0F8B000B0F5807F21D174
:10335000FFE7FEF7DDFF1A90FFE744F27040C5F685
:103360000200006800F002000021B1EB500F10D104
:10337000FFE7FEF7CDFFDDF868E0A0EB0E0041F2BD
:10338000893E704504D3FFE703208DF8670000E015
:10339000E3E7FFE79DF86700002838D1FFE7FFE784
:1033A0001C98D0F8B00000F44070B0F5407F15D103
:1033B000FFE744F21040C5F60200016821F47C5199
:1033C0001C9AD2F8B0204FF6F043C0F6FF731A40B3
:1033D00041EA12110A4601600C920AE044F21040E0
:1033E000C5F60200016821F47C510A4601600B9287
:1033F000FFE71C98D0F8B0006FF31F3044F2704123
:10340000C5F602010A6810430860FFE707E09DF86F
:1034100067009DF8661008438DF86600FFE707E037
:103420009DF867009DF8661008438DF86600FFE779
:10343000FFE71C980068C007002800F05080FFE7F5
:103440001C98806F28280A902BD80A99DFE801F091
:103450001529292929292929162929292929292903
:103460001E292929292929292629292929292929DA
:103470002729292929292929280016E01C98043000
:10348000012102F039FC8DF867000EE01C98243011
:10349000012102F009FD8DF8670006E005E004E077
:1034A00003E001208DF86700FFE79DF86700002822
:1034B0000CD1FFE744F25440C5F60200016821F048
:1034C00038011C9A926F1143016007E09DF8670074
:1034D0009DF8661008438DF86600FFE7FFE71C982B
:1034E0000068800700283DD5FFE71C98406F05283D
:1034F000099019D80999DFE801F003040C14151696
:1035000016E01C980430012102F0F6FB8DF86700EC
:103510000EE01C982430012102F0C6FC8DF86700F3
:1035200006E005E004E003E001208DF86700FFE716
:103530009DF8670000280CD1FFE744F25440C5F61F
:103540000200016821F007011C9A526F11430160CB
:1035500007E09DF867009DF8661008438DF8660047
:10356000FFE7FFE71C980068400700283FD5FFE70A
:103570001C98D0F890000528089019D80899DFE821
:1035800001F003040C14151616E01C9804300121F8
:1035900002F0B2FB8DF867000EE01C982430012188
:1035A00002F082FC8DF8670006E005E004E003E02D
:1035B00001208DF86700FFE79DF8670000280DD116
:1035C000FFE744F25840C5F60200016821F0070108
:1035D0001C9AD2F890201143016007E09DF8670023
:1035E0009DF8661008438DF86600FFE7FFE71C981A
:1035F00000688006002853D5FFE71C98D0F88C009F
:103600000028079019D0FFE70798B0F1805F15D028
:10361000FFE70798B0F1005F18D0FFE70798B0F117
:10362000405F1BD0FFE70798B0F1804F17D0FFE74E
:103630000798B0F1A04F13D013E016E01C980430A7
:10364000002102F059FB8DF867000EE01C98243031
:10365000022102F029FC8DF8670006E005E004E095
:1036600003E001208DF86700FFE79DF86700002860
:103670000DD1FFE744F25440C5F60200016821F085
:10368000E0411C9AD2F88C201143016007E09DF8BC
:1036900067009DF8661008438DF86600FFE7FFE7B6
:1036A0001C9800684006002853D5FFE71C98D0F806
:1036B00098000028069019D0FFE70698B0F5806FB3
:1036C00015D0FFE70698B0F5006F18D0FFE7069811
:1036D000B0F5406F1BD0FFE70698B0F5805F17D0BC
:1036E000FFE70698B0F5A05F13D013E016E01C9832
:1036F0000430002102F000FB8DF867000EE01C98FA
:103700002430022102F0D0FB8DF8670006E005E0CE
:1037100004E003E001208DF86700FFE79DF86700F3
:1037200000280DD1FFE744F25840C5F602000168B9
:1037300021F4E0511C9AD2F898201143016007E06F
:103740009DF867009DF8661008438DF86600FFE756
:10375000FFE71C9800680006002853D5FFE71C9877
:10376000D0F89C000028059019D0FFE70598B0F527
:10377000005F15D0FFE70598B0F5804F18D0FFE740
:103780000598B0F5C04F1BD0FFE70598B0F5004F86
:1037900017D0FFE70598B0F5204F13D013E016E0DF
:1037A0001C980430002102F0A7FA8DF867000EE0A3
:1037B0001C982430022102F077FB8DF8670006E0A8
:1037C00005E004E003E001208DF86700FFE79DF8C5
:1037D000670000280DD1FFE744F25840C5F602000B
:1037E000016821F460411C9AD2F89C2011430160C9
:1037F00007E09DF867009DF8661008438DF86600A5
:10380000FFE7FFE71C9800680007002820D5FFE7C6
:103810001C98D0F88000B0F5805F0BD1FFE71C98B2
:103820002430022102F040FB9DF8661008438DF819
:1038300066000CE044F25440C5F60200016821F431
:1038400040511C9AD2F8802011430160FFE7FFE746
:103850001C980068C006002820D5FFE71C98D0F807
:103860009400B0F5807F0BD1FFE71C982430022133
:1038700002F01AFB9DF8661008438DF866000CE014
:1038800044F25840C5F60200016821F440711C9AC8
:10389000D2F8942011430160FFE7FFE71C9800680D
:1038A0000003002841D5FFE71C98D0F8A0000028AD
:1038B00004900AD0FFE70498B0F5803F0DD0FFE7F1
:1038C0000498B0F5003F10D010E01C98043000219F
:1038D00002F012FA8DF867000CE01C9824300221E7
:1038E00002F0E2FA8DF8670004E003E001208DF8B1
:1038F0006700FFE79DF8670000280DD1FFE744F25D
:103900005840C5F60200016821F440311C9AD2F8F3
:10391000A0201143016007E09DF867009DF8661044
:1039200008438DF86600FFE7FFE71C980068400336
:10393000002843D5FFE71C98D0F88400B0F5801F1D
:1039400003900AD0FFE70398B0F5001F0ED0FFE701
:103950000398B0F5401F11D011E044F22C40C5F699
:103960000200016841F4003101600CE01C98243031
:10397000012102F099FA8DF8670004E003E00120CC
:103980008DF86700FFE79DF8670000280DD1FFE77D
:1039900044F25440C5F60200016821F440111C9A1B
:1039A000D2F884201143016007E09DF867009DF87C
:1039B000661008438DF86600FFE7FFE71C98006873
:1039C000C00300283AD5FFE71C98C06C002802907D
:1039D00005D0FFE70298B0F5803F09D010E044F22F
:1039E0002C40C5F60200016841F4003101600BE093
:1039F0001C980430022102F07FF98DF8670003E083
:103A000001208DF86700FFE79DF8670000280CD1C2
:103A1000FFE744F24C40C5F60200016821F4803112
:103A20001C9AD26C1143016007E09DF867009DF875
:103A3000661008438DF86600FFE7FFE71C980068F2
:103A4000800000280BD5FFE71C982430022102F0EB
:103A50002BFA9DF8661008438DF86600FFE71C9866
:103A60000068800300283FD5FFE71C98C06F00283E
:103A700001901AD0FFE70198B0F5807F0AD0FFE7E8
:103A80000198B0F5007F0ED0FFE70198B0F5407FB8
:103A90000AD00BE044F22C40C5F60200016841F464
:103AA0000031016006E005E004E003E001208DF84C
:103AB0006700FFE79DF8670000280CD1FFE744F29C
:103AC0005440C5F60200016821F440711C9AD26F7F
:103AD0001143016007E09DF867009DF866100843F8
:103AE0008DF86600FFE7FFE71C980068C002002819
:103AF0000CD5FFE744F25040C5F60200016821F002
:103B000000411C9A126F11430160FFE71C98006886
:103B1000C00000280DD5FFE744F21040C5F60200B2
:103B2000016821F480411C9AD2F8B420114301604D
:103B3000FFE71C980068800200280CD5FFE744F2DC
:103B40005040C5F60200016821F080711C9A926E07
:103B500011430160FFE71C9800684000002811D560
:103B6000FFE7FFE744F21040C5F60200016821F4C8
:103B7000004101601C99D1F8B8100268114301603E
:103B8000FFE7FFE71C980068C00F00280CD0FFE794
:103B900044F24C40C5F60200016821F040511C9AE5
:103BA000126D11430160FFE79DF86600002804D103
:103BB000FFE700208DF8770003E001208DF8770003
:103BC000FFE79DF877001EB080BD000000000000F8
:103BD00080B58CB00A4603460890079100200690F5
:103BE000079842F20001C5F20021096801F00701BF
:103BF00088420592049316D9FFE742F20000C5F20D
:103C00000020016821F00701079A11430160006854
:103C100000F007000799884204D0FFE701208DF8E3
:103C20002700A9E1FFE708980068800700280CD565
:103C3000FFE744F21840C5F60200016821F00F01C9
:103C4000089AD26811430160FFE708980068C0072E
:103C5000002800F0F080FFE744F21840C5F60200AB
:103C6000016821F47061089A926811430160089814
:103C70004068022811D1FFE744F20040C5F6020077
:103C8000006800F400300021B1EB504F04D1FFE791
:103C900001208DF827006FE13EE008984068032876
:103CA00011D1FFE744F20040C5F60200006800F0C1
:103CB00000700021B1EB506F04D1FFE701208DF8B7
:103CC000270059E127E008984068012811D1FFE753
:103CD00044F20040C5F60200006800F48070002144
:103CE000B1EB102F04D1FFE701208DF8270043E14D
:103CF00010E044F20040C5F60200006800F0040045
:103D00000021B1EB900F04D1FFE701208DF82700CF
:103D100032E1FFE7FFE7FFE744F21040C5F602009B
:103D2000016821F00701089A526811430160FEF70B
:103D3000EFFA06900898406802281CD1FFE7FFE7D9
:103D400044F21040C5F60200006800F03800102868
:103D500010D0FFE7FEF7DCFADDF818E0A0EB0E006C
:103D600041F2893E704504D3FFE703208DF8270018
:103D700002E1E5E75EE00898406803281CD1FFE710
:103D8000FFE744F21040C5F60200006800F038007A
:103D9000182810D0FFE7FEF7BBFADDF818E0A0EB1B
:103DA0000E0041F2893E704504D3FFE703208DF8F1
:103DB0002700E1E0E5E73CE00898406801281CD1D5
:103DC000FFE7FFE744F21040C5F60200006800F08C
:103DD0003800082810D0FFE7FEF79AFADDF818E05F
:103DE000A0EB0E0041F2893E704504D3FFE70320AB
:103DF0008DF82700C0E0E5E71AE0FFE744F2104045
:103E0000C5F60200006810F0380F10D0FFE7FEF78B
:103E10007FFADDF818E0A0EB0E0041F2893E704514
:103E200004D3FFE703208DF82700A5E0E6E7FFE7CE
:103E3000FFE7FFE7FFE7079842F20001C5F2002124
:103E4000096801F00701884216D2FFE742F200003C
:103E5000C5F20020016821F00701079A11430160B3
:103E6000006800F007000799884204D0FFE70120AE
:103E70008DF8270080E0FFE70898006840070028D9
:103E80000CD5FFE744F21840C5F60200016821F0A6
:103E90007001089A126911430160FFE708980068F1
:103EA000000700280CD5FFE744F21C40C5F60200CD
:103EB000016821F07001089A526911430160FFE71F
:103EC00008980068C00600280CD5FFE744F21C40A3
:103ED000C5F60200016821F4E061089A9269114375
:103EE0000160FFE708980068800600280CD5FFE70E
:103EF00044F22040C5F60200016821F07001089AE2
:103F0000D26911430160FFE700F0D2F844F2184E85
:103F1000C5F6020EDEF800E00EF4706E4FF40001FC
:103F20000A910A9900290390CDF808E004D1FFE72F
:103F300020208DF82F0005E00A98B0FA80F08DF867
:103F40002F00FFE79DF82F00029921FA00F04BF6B1
:103F50008442C0F60002105C039A22FA00F040F29C
:103F60000403C2F2000318600120FEF721FA0021C9
:103F70008DF827100190FFE79DF827000CB080BD59
:103F800080B584B0FEF7E8FA44F2184EC5F6020E8A
:103F9000DEF800E00EF00F0E4FF0004102910299A2
:103FA00000290190CDF800E004D1FFE720208DF832
:103FB0000F0005E00298B0FA80F08DF80F00FFE7DF
:103FC0009DF80F00009921FA00F04BF68442C0F6EC
:103FD0000002105C019A22FA00F040F20803C2F2DB
:103FE00000031860186804B080BD000000000000E5
:103FF00080B584B0FFF7C4FF44F21C4EC5F6020E34
:10400000DEF800E00EF0700E4FF0006102910299B0
:1040100000290190CDF800E004D1FFE720208DF8C1
:104020000F0005E00298B0FA80F08DF80F00FFE76E
:104030009DF80F00009921FA00F04BF68442C0F67B
:104040000002105C019A22FA00F004B080BD00006A
:1040500080B584B0FFF794FF44F21C4EC5F6020E03
:10406000DEF800E00EF4E06E4FF4000102910299D8
:1040700000290190CDF800E004D1FFE720208DF861
:104080000F0005E00298B0FA80F08DF80F00FFE70E
:104090009DF80F00009921FA00F04BF68442C0F61B
:1040A0000002105C019A22FA00F004B080BD00000A
:1040B0008AB001200990002108910790069105918E
:1040C00004910391029144F21040C5F60200006889
:1040D00000F0380001461828019100F26D81019925
:1040E000DFE811F019006A016A016A016A016A01D8
:1040F0006A016A013B006A016A016A016A016A0198
:104100006A016A0141006A016A016A016A016A0181
:104110006A016A01470044F20040C5F602000068E7
:1041200000F020000021B1EB501F0FD0FFE744F258
:104130000040C5F602000068C0F3C10049F200016A
:10414000C0F2D03121FA00F0029005E049F20000FF
:10415000C0F2D0300290FFE734E140F60010C0F228
:104160003D0002902EE147F64000C0F27D10029023
:1041700028E144F22840C5F60200016801F003017D
:1041800008910068C0F30510079044F22C40C5F672
:104190000200006800F001000690069844F23441E5
:1041A000C5F60201096889B2C908484300EE100A41
:1041B000B8EE400A8DED040A08980028009009D056
:1041C000FFE7009801286BD0FFE70098022800F075
:1041D0008E80B3E044F20040C5F60200006800F0B3
:1041E00020000021B1EB501F32D0FFE744F2004025
:1041F000C5F602000068C0F3C10049F20001C0F238
:10420000D03121FA00F0059005980799B0FBF1F044
:1042100000EE100AB8EE400A44F23040C5F6020043
:1042200000686FF35F2001EE100AB8EE411A9DEDB1
:10423000042A9FED663A82EE032A31EE021AB7EEA7
:10424000002A31EE021A20EE010A8DED030A26E063
:10425000079849F20001C0F2D031B1FBF0F000EE56
:10426000100AB8EE400A44F23040C5F60200006879
:104270006FF35F2001EE100AB8EE411A9DED042A9B
:104280009FED523A82EE032A31EE021AB7EE002A6F
:1042900031EE021A20EE010A8DED030AFFE774E009
:1042A000079840F60011C0F23D01B1FBF0F000EEBE
:1042B000100AB8EE400A44F23040C5F60200006829
:1042C0006FF35F2001EE100AB8EE411A9DED042A4B
:1042D0009FED3E3A82EE032A31EE021AB7EE002A33
:1042E00031EE021A20EE010A8DED030A4DE0079827
:1042F00047F64001C0F27D11B1FBF0F000EE100A6C
:10430000B8EE400A44F23040C5F6020000686FF390
:104310005F2001EE100AB8EE411A9DED042A9FEDD0
:104320002B3A82EE032A31EE021AB7EE002A31EE62
:10433000021A20EE010A8DED030A26E0079840F6E6
:104340000011C0F23D01B1FBF0F000EE100AB8EE32
:10435000400A44F23040C5F6020000686FF35F2067
:1043600001EE100AB8EE411A9DED042A9FED173AAE
:1043700082EE032A31EE021AB7EE002A31EE021A5B
:1043800020EE010A8DED030AFFE744F23040C5F646
:104390000200006880B2012101EB502009909DEDE0
:1043A000030A9DED091AB8EE411A80EE010ABCEE2F
:1043B000C00A8DED020A05E040F60010C0F23D0093
:1043C0000290FFE702980AB0704700BF0000004665
:1043D00080B598B001460C9000200B900C980068B6
:1043E000C00700280A9100F0C680FFE744F21040A1
:1043F000C5F60200006800F03800102814D0FFE76E
:1044000044F21040C5F60200006800F03800182899
:1044100021D1FFE744F22840C5F60200006800F011
:104420000300022817D1FFE744F20040C5F602005E
:10443000006800F400300021B1EB504F0AD0FFE7D4
:104440000C984068002805D1FFE701208DF837005F
:1044500000F002BD8EE0FFE70C984068B0F5803FA9
:1044600009D1FFE744F20040C5F60200016841F4BB
:104470008031016033E00C98406800280DD1FFE7DF
:1044800044F20040C5F60200016821F48031016069
:10449000016821F48021016020E00C984068B0F5AB
:1044A000A02F0DD1FFE744F20040C5F602000168DD
:1044B00041F480210160016841F4803101600CE029
:1044C00044F20040C5F60200016821F48031016029
:1044D000016821F480210160FFE7FFE7FFE7FFE7C4
:1044E0000C984068002822D0FFE7FDF711FF0B90E1
:1044F000FFE744F20040C5F60200006800F4003017
:104500000021B1EB504F11D1FFE7FDF701FFDDF8BE
:104510002CE0A0EB0E0041F2893E704505D3FFE789
:1045200003208DF8370000F097BCE2E721E0FDF7AB
:10453000EFFE0B90FFE744F20040C5F60200006872
:1045400000F400300021B1EB504F11D0FFE7FDF730
:10455000DFFEDDF82CE0A0EB0E0041F2893E704555
:1045600005D3FFE703208DF8370000F075BCE2E7C4
:10457000FFE7FFE7FFE70C9800688007002840F19D
:104580000781FFE744F21040C5F60200006810F012
:10459000380F13D0FFE744F21040C5F60200006860
:1045A00000F03800182873D1FFE744F22840C5F620
:1045B00002000068800700286AD1FFE744F200404B
:1045C000C5F60200006800F004000021B1EB900F76
:1045D0000AD0FFE70C98C068002805D1FFE701204A
:1045E0008DF8370000F038BC44F20040C5F60200F8
:1045F000016821F019010C9AD26811430160FDF79E
:1046000087FE0B90FFE744F20040C5F60200006809
:1046100000F004000021B1EB900F0FD1FFE7FDF790
:1046200077FEDDF82CE0A0EB0E00032805D3FFE7B2
:1046300003208DF8370000F00FBCE4E744F204409B
:10464000C5F60200006820F47C300C9909694FF42B
:104650007C220E920E9A002A0990089104D1FFE75D
:1046600020208DF83F0005E00E98B0FA80F08DF81C
:104670003F00FFE79DF83F00089901FA00F0099A12
:10468000104344F20443C5F602031860FFE77EE0DE
:104690000C98C068002852D0FFE744F20040C5F6ED
:1046A0000200016821F019010C9AD26811430160DF
:1046B000FDF72EFE0B90FFE744F20040C5F6020026
:1046C000006800F004000021B1EB900F0ED1FFE76D
:1046D000FDF71EFEDDF82CE0A0EB0E00032804D34E
:1046E000FFE703208DF83700B6E3E5E744F2044026
:1046F000C5F60200006820F47C300C9909694FF47B
:104700007C221692169A002A0790069104D1FFE7A0
:1047100020208DF85F0005E01698B0FA80F08DF843
:104720005F00FFE79DF85F00069901FA00F0079A25
:10473000104344F20443C5F60203186026E044F235
:104740000040C5F60200016821F001010160FDF79B
:10475000DFFD0B90FFE744F20040C5F60200006861
:1047600000F004000021B1EB900F0ED0FFE7FDF741
:10477000CFFDDDF82CE0A0EB0E00032804D3FFE70B
:1047800003208DF8370067E3E5E7FFE7FFE7FFE782
:104790000C980068C006002840F1D980FFE744F279
:1047A0001040C5F60200006800F03800082814D058
:1047B000FFE744F21040C5F60200006800F0380040
:1047C000182848D1FFE744F22840C5F602000068E7
:1047D00000F0030001283ED1FFE744F20040C5F697
:1047E0000200006800F480700021B1EB102F09D0A6
:1047F000FFE70C98C069802804D0FFE701208DF8FE
:10480000370029E344F20440C5F60200006820F0B6
:10481000F8400C99096A3E221492149A002A0590D5
:10482000049104D1FFE720208DF8570005E014988B
:10483000B0FA80F08DF85700FFE79DF85700049913
:1048400001FA00F0059A104344F20443C5F602034E
:104850001860FFE77AE00C98C06900284ED0FFE7A7
:1048600044F20040C5F60200016841F08001016099
:10487000FDF74EFD0B90FFE744F20040C5F6020045
:10488000006800F480700021B1EB102F0ED1FFE71B
:10489000FDF73EFDDDF82CE0A0EB0E00032804D36D
:1048A000FFE703208DF83700D6E2E5E744F2044045
:1048B000C5F60200006820F0F8400C99096A3E2213
:1048C0001292129A002A0390029104D1FFE720204D
:1048D0008DF84F0005E01298B0FA80F08DF84F0087
:1048E000FFE79DF84F00029901FA00F0039A104388
:1048F00044F20443C5F60203186026E044F2004087
:10490000C5F60200016821F080010160FDF700FD9D
:104910000B90FFE744F20040C5F60200006800F487
:1049200080700021B1EB102F0ED0FFE7FDF7F0FCF7
:10493000DDF82CE0A0EB0E00032804D3FFE70320F2
:104940008DF8370088E2E5E7FFE7FFE7FFE70C981F
:1049500000680007002854D5FFE70C98406900283C
:1049600027D0FFE744F27440C5F60200016841F029
:1049700001010160FDF7CCFC0B90FFE744F27440AD
:10498000C5F60200006800F002000021B1EB500FF4
:104990000ED1FFE7FDF7BCFCDDF82CE0A0EB0E002C
:1049A000032804D3FFE703208DF8370054E2E5E73E
:1049B00026E044F27440C5F60200016821F00101CE
:1049C0000160FDF7A5FC0B90FFE744F27440C5F6CB
:1049D0000200006800F002000021B1EB500F0ED081
:1049E000FFE7FDF795FCDDF82CE0A0EB0E000328B7
:1049F00004D3FFE703208DF837002DE2E5E7FFE75A
:104A0000FFE70C9800688006002854D5FFE70C9853
:104A10008069002827D0FFE744F20040C5F6020075
:104A2000016841F480510160FDF772FC0B90FFE7D3
:104A300044F20040C5F60200006800F40050002176
:104A4000B1EB503F0ED1FFE7FDF762FCDDF82CE043
:104A5000A0EB0E00032804D3FFE703208DF83700F6
:104A6000FAE1E5E726E044F20040C5F602000168FD
:104A700021F480510160FDF74BFC0B90FFE744F2FD
:104A80000040C5F60200006800F400500021B1EBC0
:104A9000503F0ED0FFE7FDF73BFCDDF82CE0A0EB2C
:104AA0000E00032804D3FFE703208DF83700D3E17D
:104AB000E5E7FFE7FFE70C9800684007002840F1B2
:104AC000AF80FFE744F60000C5F60200016841F43C
:104AD00080710160FDF71CFC0B90FFE744F60000BD
:104AE000C5F602000068C00500280ED4FFE7FDF7F8
:104AF0000FFCDDF82CE0A0EB0E00652804D3FFE7E7
:104B000003208DF83700A7E1E8E7FFE70C988068FD
:104B1000012809D1FFE744F27040C5F602000168A0
:104B200041F00101016032E00C98806800280DD14D
:104B3000FFE744F27040C5F60200016821F0010170
:104B40000160016821F0040101601FE00C98806899
:104B500005280DD1FFE744F27040C5F60200016858
:104B600041F004010160016841F0010101600CE0C5
:104B700044F27040C5F60200016821F001010160B5
:104B8000016821F004010160FFE7FFE7FFE7FFE7AD
:104B90000C988068002821D0FFE7FDF7B9FB0B9047
:104BA000FFE744F27040C5F60200006800F0020022
:104BB0000021B1EB500F10D1FFE7FDF7A9FBDDF8A5
:104BC0002CE0A0EB0E0041F2893E704504D3FFE7D4
:104BD00003208DF837003FE1E3E720E0FDF798FB85
:104BE0000B90FFE744F27040C5F60200006800F049
:104BF00002000021B1EB500F10D0FFE7FDF788FB5A
:104C0000DDF82CE0A0EB0E0041F2893E704504D3A4
:104C1000FFE703208DF837001EE1E3E7FFE7FFE73A
:104C20000C98406A002800F01381FFE744F210401E
:104C3000C5F60200006800F03800182800F0038173
:104C4000FFE70C98406A022840F0D580FFE744F265
:104C50000040C5F60200016821F080710160FDF797
:104C600057FB0B90FFE744F20040C5F602000068D6
:104C700000F000700021B1EB506F0ED0FFE7FDF7A0
:104C800047FBDDF82CE0A0EB0E00032804D3FFE780
:104C900003208DF83700DFE0E5E7FFE744F2284026
:104CA000C5F60200016840F2F33291430C9A936A10
:104CB000D26A43EA0212114301600C98016B426B05
:104CC000836BC06B01396FF35F214FF6006CCFF639
:104CD000FF7C0CEB422292B211440022CFF6FF720D
:104CE00002EB034202F4FE0211444FF07F4202EB5A
:104CF000006000F0FE40084444F23041C5F6020175
:104D00000860FFE744F23440C5F6020000684FF641
:104D1000F87188430C99896C0022C1F6FF721092D9
:104D2000109A002A0190009104D1FFE720208DF80D
:104D3000470005E01098B0FA80F08DF84700FFE7D3
:104D40009DF84700009901FA00F0019A104344F2DF
:104D50003443C5F60203186044F22C40C5F6020045
:104D6000036823F00C03DDF830C0DCF840C043EAF0
:104D70000C030360036823F00203DDF830C0DCF8A5
:104D800044C043EA0C030360036843F480330360C8
:104D9000036843F400330360036843F48023036033
:104DA000036843F00103036044F20040C5F60200CB
:104DB000036843F080730360FDF7AAFA0B90FFE7E6
:104DC00044F20040C5F60200006800F000700021C7
:104DD000B1EB506F0ED1FFE7FDF79AFADDF82CE04A
:104DE000A0EB0E00032804D3FFE703208DF8370063
:104DF00032E0E5E726E044F20040C5F60200016833
:104E000021F080710160FDF783FA0B90FFE744F217
:104E10000040C5F60200006800F000700021B1EB10
:104E2000506F0ED0FFE7FDF773FADDF82CE0A0EB32
:104E30000E00032804D3FFE703208DF837000BE0B2
:104E4000E5E7FFE703E001208DF8370004E0FFE726
:104E500000208DF83700FFE79DF8370018B080BDBF
:104E60004EF21000CEF20000016841F00201016034
:104E7000704700000000000080B58EB013468C46DD
:104E800086460C900B910A920C9800280993CDF855
:104E900020C0CDF81CE004D1FFE701208DF83700D9
:104EA00045E00C9890F84500002808D1FFE70C98E1
:104EB000002180F844100C9800F03EF8FFE70C98B1
:104EC00050F8081B069008460699FCF731FF0C992C
:104ED000DDF82CE00A688968059010460491714657
:104EE000049AFCF7A5FF0C990A9AD1F804E08B68A4
:104EF000C96A03907046029111461A46029BFCF75C
:104F0000D3FE0C990A68896852F8213043F00103F6
:104F100042F8213044F20001C5F200210A6842F053
:104F200000420A6000218DF837100190FFE79DF8DC
:104F300037000EB080BD000082B0014601900091A4
:104F400002B07047000000004EF21000CEF20000E8
:104F5000016821F0020101607047000000000000BC
:104F600080B584B00146029002980028019104D1D6
:104F7000FFE701208DF80F0049E0029880690028C2
:104F800001D0FFE700E0FFE7029890F879000028E1
:104F900008D1FFE70298002180F87810029800F00D
:104FA0003BF8FFE70298242180F879100298006806
:104FB000016821F001010160029801F0B5FC0128AF
:104FC00004D1FFE701208DF80F0020E00298406B2C
:104FD000002804D0FFE7029801F0A6FBFFE7029843
:104FE0000068416821F4904141600298006881683E
:104FF00021F02A01816002980068016841F00101F6
:105000000160029801F038FC8DF80F00FFE79DF871
:105010000F0004B080BD000082B0014601900091F5
:1050200002B070470000000080B59CB009A84C2178
:105030000190FBF7F9F90020089007900690059081
:1050400004900390029044F20001C5F200210991FE
:1050500044F20411C5F200210A91052102910221B6
:10506000039104914FF0010ECDF814E006910791E1
:1050700008900B900C900D9020210E910F901090A5
:1050800011904FF480511291139014901590169036
:105090001790189002A80199009008460099009A6C
:1050A000FFF7EAFE002809D0FFE74BF67160C0F673
:1050B00000004FF49271FBF7BFFDFFE71CB080BD0D
:1050C00080B594B0FFE744F2E040C5F60200016805
:1050D00041F008010160006800F008000E900E9891
:1050E0000890FFE7FFE744F2E040C5F602000168E0
:1050F00041F010010160006800F010000D900D9863
:105100000790FFE7FFE744F2E040C5F602000168C0
:1051100041F040010160006800F040000C900C98E4
:105120000690FFE7FFE744F2E040C5F602000168A1
:1051300041F080010160006800F080000B900B9846
:105140000590FFE7FFE744F2E040C5F60200016882
:1051500041F480710160006800F480700A900A9840
:105160000490FFE7FFE744F2D440C5F6020001686F
:1051700041F480510160006800F480500990099862
:105180000390FFE70220109001201190032012905D
:105190000C2113914CF2B3710F9140F60041C5F60A
:1051A00002010FAA0290084611460192FCF7BCFECC
:1051B0004FF680700F9041F20000C5F60200019991
:1051C000FCF7B2FE02980F9041F60000C5F602000F
:1051D0000199FCF7A9FE4FF47F400F9041F6004083
:1051E000C5F602000199FCF79FFE40F2CF600F90D8
:1051F00042F20000C5F602000199FCF795FE14B0DA
:1052000080BD00000000000083B00146019040F224
:105210001C10C2F200000068019A1042009104D0F4
:10522000FFE701208DF80B0003E000208DF80B0054
:10523000FFE79DF80B0003B070470000000000007E
:1052400084B00A46034603908DF80B109DF80B00BE
:105250000028019200930AD1FFE7039840F21C1145
:10526000C2F200010A6822EA0000086008E0039820
:1052700040F21C11C2F200010A6810430860FFE707
:1052800040F21C10C2F20000006841F20001C6F2B8
:105290000001086004B0704784B0014603904EF6E8
:1052A0002C50CEF200000068C00F002800910DD0F5
:1052B000FFE74EF62C50CEF20000016841F00041AD
:1052C0000160039881690231816199E04EF62450B2
:1052D000CEF20000006840F2C401C2F20001086290
:1052E0004EF62850CEF20000007881F824004EF6E9
:1052F0002950CEF20000007888624EF63850CEF287
:1053000000000068C8624EF62A50CEF20000008805
:1053100008864EF62C50CEF20000006848634EF628
:105320003050CEF20000006888634EF63C50CEF25A
:1053300000000068C8634BF6B460C0F6000002903D
:1053400000208DF80700FFE79DF8070028281BD8EC
:10535000FFE702989DF80710405C41F22801C4F273
:1053600001010880FFE741F21C00C4F2010000685F
:105370004006002801D4FFE7F5E7FFE79DF80700A6
:1053800001308DF80700DFE740F21810C2F200008C
:1053900000210160FFE740F21810C2F2000000682F
:1053A000002801D1FFE7F6E70398006840F2C40146
:1053B000C2F2000108600398406848600398806862
:1053C00088600398C068C860039800690861039802
:1053D000406948610398806988610398C069C86121
:1053E00040F21810C2F2000000210160FFE740F215
:1053F0001810C2F200000068002801D1FFE7F6E7AC
:1054000004B070470000000080B582B041F2006037
:10541000C2F20000103002F0F3FC019002B080BD37
:1054200080B582B041F20060C2F200000C3002F0A0
:10543000E7FC019002B080BD80B582B041F200600F
:10544000C2F20000083002F0DBFC019002B080BD27
:1054500080B5D0B001201C9000203A901CA8FDF728
:1054600093FB1590FFE744F2E040C5F602000168A7
:1054700041F001010160006800F001001B901B98E1
:105480001490FFE7FFE744F2E040C5F60200016830
:1054900041F001010160006800F001001A901A98C3
:1054A0001390FFE7FFE744F2F040C5F60200016801
:1054B00041F010010160006800F010001990199887
:1054C0001290FFE74FF400704B9002204C900121A6
:1054D0004D9103214E9107214F910022C5F6020202
:1054E0004BAB11901046109119460F920E93FCF79A
:1054F0001BFD4FF480604B9010984F900F980E99C1
:10550000FCF712FD252000210D90119A0C911146F7
:105510000C9AFCF7F1FF0D98FCF7E2FF41F2000056
:10552000C4F201004FF4E1310C230B900C9A02F00D
:10553000E3FF41F22000C4F20100016841F04001A4
:10554000016041F21800C4F20100018841F0080135
:1055500001800B98016841F020010160FFE744F2EF
:10556000E040C5F60200016841F0020101600068F8
:1055700000F00200189018980A90FFE7FFE744F245
:10558000E040C5F60200016841F0020101600068D8
:1055900000F00200179017980990FFE7FFE744F228
:1055A000E840C5F60200016841F48021016000680E
:1055B00000F48020169016980890FFE74FF4806062
:1055C0004B9002204C9001214D9103214E910721D7
:1055D0004F9140F20042C5F602024BAB07901046D5
:1055E0000691194605920493FCF79EFC4FF4006067
:1055F0004B9006984F9005980499FCF795FC27204E
:1056000000210390079A02911146029AFCF774FF59
:105610000398FCF765FF44F60000C4F200004FF465
:1056200016510C230190029A02F066FF44F6200006
:10563000C4F20000016841F04001016044F6180026
:10564000C4F20000018841F008010180019801685E
:1056500041F02001016050B080BD0000000000005A
:1056600083B0EFF310800190019801210028009190
:1056700009D1FFE7EFF3118002900298002818BFCC
:1056800001200090FFE7009800F0010003B0704790
:1056900083B0EFF310800190019801210028009160
:1056A00009D1FFE7EFF3118002900298002818BF9C
:1056B00001200090FFE7009800F0010003B0704760
:1056C00083B0EFF310800190019801210028009130
:1056D00009D1FFE7EFF3118002900298002818BF6C
:1056E00001200090FFE7009800F0010003B0704730
:1056F00083B0EFF310800190019801210028009100
:1057000009D1FFE7EFF3118002900298002818BF3B
:1057100001200090FFE7009800F0010003B07047FF
:1057200081B0EFF3058000900098002818BF012099
:1057300001B070470000000081B0EFF305800090D9
:105740000098002818BF012001B070470000000039
:1057500081B0EFF3058000900098002818BF012069
:1057600001B070470000000081B0EFF305800090A9
:105770000098002818BF012001B070470000000009
:1057800080B584B001468DF80E009DF80E00072804
:1057900001913ADCFFE700208DF80C00FF218DF825
:1057A0000B108DF80D00FFE79DF80D00072818DCA1
:1057B000FFE79DF80D0000F06FF800280AD0FFE722
:1057C0009DF80C0001308DF80C009DF80D008DF84F
:1057D0000B00FFE7FFE79DF80D0001308DF80D008D
:1057E000E2E79DF80C0001280BD1FFE79DF80B00C4
:1057F0009DF80E10884204D1FFE701208DF80F00BC
:1058000039E000208DF80F0035E09DF80E000828E3
:1058100014D1FFE7002000F03FF800280AD0FFE78E
:10582000012000F039F8002804D0FFE701208DF8AE
:105830000F0020E000208DF80F001CE09DF80E0006
:10584000092814D1FFE7012000F026F800280AD02B
:10585000FFE7022000F020F8002804D0FFE7012035
:105860008DF80F0007E000208DF80F0003E0002006
:105870008DF80F00FFE79DF80F0004B080BD000019
:1058800081B0EFF3148000909DF80000012121EA1F
:10589000000001B07047000082B001468DF806009C
:1058A0009DF806004BF6B852C0F6000252F83000E0
:1058B00000699DF8063002EBC30292881042009105
:1058C00004D1FFE700208DF8050003E001208DF8EA
:1058D0000500FFE79DF805009DF806104BF6B8524D
:1058E000C0F6000202EBC1018979884204D1FFE7CA
:1058F00001208DF8070003E000208DF80700FFE786
:105900009DF8070002B0704770B587B00A4603469D
:10591000069005910698059950E8004FA60103D31B
:10592000BFF32F8F002406E004F000440C4340E84E
:10593000004505B1F0E7049403950296049801929E
:10594000009307B070BD000080B588B0FCF784FDFF
:105950004FF0010E8DF810E04FF01050059012201E
:105960008DF8180003208DF81B008DF81FE08DF8CE
:105970001EE000218DF81D108DF811108DF81AE031
:105980008DF819108DF81C1004AA03901046CDF85C
:1059900008E001910092FCF713FD02988DF81000C9
:1059A0004FF0C04105910F218DF8181003998DF823
:1059B0001B108DF81F00019A8DF81E208DF81D20F8
:1059C0008DF811008DF81A208DF819208DF81C2003
:1059D0000098FCF7F5FC0420FCF752FD08B080BDF0
:1059E00086B00A4603460590049105980499084438
:1059F00003900398029002980192009306B07047BA
:105A000082B0014601900198009102B070470000F9
:105A1000FFE7FEE70000000080B586B00146059074
:105A200005982830019102F06BF903900398002843
:105A30001AD0FFE70598C06A0490FFE70498002891
:105A400011D0FFE704980230012102F039FA8DF8F5
:105A50000B009DF80B00002801D1FFE703E004983C
:105A600080680490EAE702E000200490FFE70498D1
:105A700006B080BD0000000080B588B00A4603462D
:105A8000079006910798006B00280392029340D07C
:105A9000FFE70798006B059000200490FFE705984A
:105AA0000021002801910AD0FFE70598C0780699E7
:105AB000C97800228842B8BF01220192FFE701980D
:105AC000C007002806D0FFE70598049005984068B5
:105AD0000590E4E70598069948600498069988605F
