:020000040800F2
:1000000068A5002041080008274000088D0A000864
:10001000813F0008A10B00085555000800000000B2
:10002000000000000000000000000000650800085B
:10003000510D000800000000FD0800080D0900082F
:100040005B0800085B0800085B0800085B08000804
:100050005B0800085B0800085B0800085B080008F4
:100060005B0800085B0800085B0800085B080008E4
:100070005B0800085B0800085B0800085B080008D4
:100080005B0800085B0800085B0800085B080008C4
:100090005B0800085B0800085B0800085B080008B4
:1000A0005B0800085B0800085B0800085B080008A4
:1000B000C14500085B0800085B0800085B080008F1
:1000C0005B0800085B0800085B0800085B08000884
:1000D0005B080008955200085B080008A55200085C
:1000E0005B0800085B080008000000005B080008CF
:1000F0005B0800085B0800085B0800085B08000854
:100100005B0800085B0800085B0800085B08000843
:100110005B0800085B0800085B0800085B08000833
:100120005B0800085B0800085B0800085B08000823
:100130005B0800085B0800085B0800085B08000813
:1001400000000000000000000000000000000000AF
:100150005B0800085B0800085B0800085B080008F3
:100160005B0800085B0800085B0800085B080008E3
:100170005B0800085B0800085B080008000000003E
:100180005B0800085B0800085B0800085B080008C3
:100190005B0800085B0800085B0800085B080008B3
:1001A0005B0800085B0800085B0800085B080008A3
:1001B0005B0800085B0800085B0800085B08000893
:1001C0005B0800085B0800085B0800085B08000883
:1001D0005B0800085B0800085B0800085B08000873
:1001E0005B0800085B0800085B0800085B08000863
:1001F0005B0800085B0800085B0800085B08000853
:100200005B0800085B0800085B0800085B08000842
:100210005B0800085B0800085B0800085B08000832
:100220005B0800085B0800085B080008000000008D
:100230005B0800085B080008000000005B0800087D
:100240005B0800085B0800085B0800085B08000802
:100250005B0800085B0800085B0800085B080008F2
:100260005B0800085B0800085B0800085B080008E2
:100270005B0800085B0800085B080008000000003D
:100280005B080008000000005B0800080000000098
:10029000000000005B080008DFF80CD000F0B8FB9D
:1002A00000480047F95C000868A500200246D2E833
:1002B0004F0FC2E8431F03B1F9E77047024652E807
:1002C000000F40EA010042E8000303B1F7E770477E
:1002D00010B5024652E8000F20EA010442E800434C
:1002E00003B1F7E710BD10B5024652E8000F00EA6F
:1002F00001048C4203D0BFF32F8F002010BD20EAF1
:10030000010442E8004303B1EFE710BD10B5024617
:1003100052E8000F084203D1BFF32F8F002010BD19
:1003200020EA010442E8004303B1F1E710BD0246B0
:1003300052E8000F411C42E8001303B1F8E7704790
:1003400010B50246D2E85F0F814202D8BFF32F8F6B
:1003500010BD441CC2E8534F03B1F3E710BD10B504
:100360000246D2E85F0F441CA14200D80024C2E834
:10037000534F03B1F5E710BD024652E8000F411E8E
:1003800042E8001303B1F8E77047024652E8000F55
:1003900010B9BFF32F8F7047411E42E8001303B11D
:1003A000F4E770470246D2E85F0F10B9BFF32F8F12
:1003B0007047411EC2E8531F03B1F4E7704702467D
:1003C00052E8000F10B9BFF32F8F7047016842E861
:1003D000001303B1F4E7704702680A60BFF35F8F50
:1003E00050E8002F0B689342F6D140E8001303B1A8
:1003F000F2E770470246D2E84F0FC2E8431F03B14D
:10040000F9E77047024652E8000F40EA010042E86F
:10041000000303B1F7E7704710B5024652E8000F3A
:1004200020EA010442E8004303B1F7E710BD10B52C
:10043000024652E8000F00EA01048C4203D0BFF3E9
:100440002F8F002010BD20EA010442E8004303B1D1
:10045000EFE710BD10B5024652E8000F084203D185
:10046000BFF32F8F002010BD20EA010442E80043B3
:1004700003B1F1E710BD024652E8000F411C42E80B
:10048000001303B1F8E7704710B50246D2E85F0FDA
:10049000814202D8BFF32F8F10BD441CC2E8534FD6
:1004A00003B1F3E710BD10B50246D2E85F0F441C5C
:1004B000A14200D80024C2E8534F03B1F5E710BDB4
:1004C000024652E8000F411E42E8001303B1F8E76C
:1004D0007047024652E8000F10B9BFF32F8F7047E4
:1004E000411E42E8001303B1F4E770470246D2E828
:1004F0005F0F10B9BFF32F8F7047411EC2E8531F23
:1005000003B1F4E77047024652E8000F10B9BFF399
:100510002F8F7047016842E8001303B1F4E770477A
:1005200002680A60BFF35F8F50E8002F0B689342A8
:10053000F6D140E8001303B1F2E770470246D2E873
:100540004F0FC2E8431F03B1F9E77047024652E874
:10055000000F40EA010042E8000303B1F7E77047EB
:1005600010B5024652E8000F20EA010442E80043B9
:1005700003B1F7E710BD10B5024652E8000F00EADC
:1005800001048C4203D0BFF32F8F002010BD20EA5E
:10059000010442E8004303B1EFE710BD10B5024685
:1005A00052E8000F084203D1BFF32F8F002010BD87
:1005B00020EA010442E8004303B1F1E710BD02461E
:1005C00052E8000F411C42E8001303B1F8E77047FE
:1005D00010B50246D2E85F0F814202D8BFF32F8FD9
:1005E00010BD441CC2E8534F03B1F3E710BD10B572
:1005F0000246D2E85F0F441CA14200D80024C2E8A2
:10060000534F03B1F5E710BD024652E8000F411EFB
:1006100042E8001303B1F8E77047024652E8000FC2
:1006200010B9BFF32F8F7047411E42E8001303B18A
:10063000F4E770470246D2E85F0F10B9BFF32F8F7F
:100640007047411EC2E8531F03B1F4E770470246EA
:1006500052E8000F10B9BFF32F8F7047016842E8CE
:10066000001303B1F4E7704702680A60BFF35F8FBD
:1006700050E8002F0B689342F6D140E8001303B115
:10068000F2E770470246D2E84F0FC2E8431F03B1BA
:10069000F9E77047024652E8000F40EA010042E8DD
:1006A000000303B1F7E7704710B5024652E8000FA8
:1006B00020EA010442E8004303B1F7E710BD10B59A
:1006C000024652E8000F00EA01048C4203D0BFF357
:1006D0002F8F002010BD20EA010442E8004303B13F
:1006E000EFE710BD10B5024652E8000F084203D1F3
:1006F000BFF32F8F002010BD20EA010442E8004321
:1007000003B1F1E710BD024652E8000F411C42E878
:10071000001303B1F8E7704710B50246D2E85F0F47
:10072000814202D8BFF32F8F10BD441CC2E8534F43
:1007300003B1F3E710BD10B50246D2E85F0F441CC9
:10074000A14200D80024C2E8534F03B1F5E710BD21
:10075000024652E8000F411E42E8001303B1F8E7D9
:100760007047024652E8000F10B9BFF32F8F704751
:10077000411E42E8001303B1F4E770470246D2E895
:100780005F0F10B9BFF32F8F7047411EC2E8531F90
:1007900003B1F4E77047024652E8000F10B9BFF307
:1007A0002F8F7047016842E8001303B1F4E77047E8
:1007B00002680A60BFF35F8F50E8002F0B68934216
:1007C000F6D140E8001303B1F2E770470246D2E8E1
:1007D0004F0F411CC2E8431F03B1F8E770470246C0
:1007E00052E8000F411C42E8001303B1F8E77047DC
:1007F000024652E8000F42E8001303B1F9E77047E0
:10080000024652E8000F830103D3BFF32F8F00206D
:10081000704700F00040084342E8000303B1F0E7EE
:100820007047024652E8000F800103D2BFF32F8FBA
:100830000020704742E8001303B1F3E7012070473E
:100840000648804706480047FEE7FEE7FEE7FEE76A
:10085000FEE7FEE7FEE7FEE7FEE7FEE70D450008E0
:10086000990200081EF0040F0CBFEFF30880EFF3AD
:100870000980816911F8021C91BB01B590E80F1045
:10088000E047BDE800508CE80300244B93E80600E5
:10089000914208BF704741B91EF0100F10D1204996
:1008A000086820F0010008600AE02CE9F00F1EF053
:1008B000100F08BF2CED108AC1F838C081F822E073
:1008C0001A6092F82210906B61F0FF0E1EF0100F6C
:1008D00008BFB0EC108AB0E8F00F80F309887047C9
:1008E000104A13689942FAD801B552F821C00FC8CE
:1008F000E047BDE80050CCF80000704701B505F0B6
:1009000049FDBDE80140EFF3098CBEE701B505F0F4
:10091000FFFFBDE80140EFF3098CB6E7B07E002091
:1009200034EF00E0607700082DE9F05F0546002015
:1009300092469B4688460646814640241BE0284650
:1009400041464746224600F053F853465A46C01ADD
:10095000914110D311461846224600F03AF82D1A5C
:1009600067EB01084F4622460120002100F031F8D4
:1009700017EB00094E41201EA4F10104DFDC4846BC
:1009800031462A464346BDE8F09F40EA01039B07F3
:1009900003D009E008C9121F08C0042AFAD203E0F4
:1009A00011F8013B00F8013B521EF9D27047D2B258
:1009B00001E000F8012B491EFBD270470022F6E748
:1009C00010B513460A4604461946FFF7F0FF2046C5
:1009D00010BD202A04DB203A00FA02F10020704703
:1009E0009140C2F1200320FA03F31943904070476D
:1009F000202A04DB203A21FA02F00021704721FA74
:100A000002F3D040C2F120029140084319467047DA
:100A1000064C074D06E0E06840F0010394E807004B
:100A200098471034AC42F6D3FFF73AFC6C780008D4
:100A30008C78000870B58C1810F8015B15F007036E
:100A400001D110F8013B2A1106D110F8012B03E067
:100A500010F8016B01F8016B5B1EF9D12B0705D46F
:100A60000023521E0DD401F8013BFAE710F8013BB8
:100A7000CB1A921C03E013F8015B01F8015B521ED4
:100A8000F9D5A142D8D3002070BD00001EF0040F9C
:100A90000CBFEFF30880EFF3098003F011B80000FA
:100AA00010B50B4A00210B4805F0E8FF0A49086021
:100AB0000A4A00210A4805F0E1FF0A4908600A4A8B
:100AC00000210A4805F0DAFF0949086010BD00005E
:100AD000B4750008110B0008547E0020D87500087A
:100AE000F50A0008587E0020FC7500086D0B000810
:100AF000507E002000BF05F06BF9044606E002209E
:100B000004F067FFC834204605F02CF9F7E7000031
:100B10000EE0D02207A14EF6017000F051F90A2034
:100B200005F002F9D22203A14EF6217000F048F937
:100B3000EFE700002E2E5C2E2E5C557365725C6D07
:100B400061696E2E6300000000BF02F035FE04F004
:100B50002DFEFFF7A5FF05F03BF9044605E003F085
:100B60000BFC641C204605F0FDF8F8E70EE004F0ED
:100B700003FE04463CB1012C03D105A004F0ECFCBB
:100B800000E000BF00BF142005F0CEF8EFE7000042
:100B90004B45595F444F574E5F4B310D0A000000E3
:100BA00000BFFEE710B500BF4848006800F4003001
:100BB00000B139E000BF00BF00BFBFF34F8F00BFDF
:100BC00000BF00BF00BF00BF00BFBFF36F8F00BFFB
:100BD00000BF00BF00203E49086000BF00BF00BF4B
:100BE000BFF34F8F00BF00BF00BF00BF00BF00BFFB
:100BF000BFF36F8F00BF00BF00BF3448006840F4F0
:100C000000303249086000BF00BF00BFBFF34F8F04
:100C100000BF00BF00BF00BF00BF00BFBFF36F8FAA
:100C200000BF00BF00BF00BF00BF284B1B6803F41C
:100C3000803303B148E00023244C7034236000BFAC
:100C400000BF00BFBFF34F8F00BF00BF00BF231F17
:100C50001868C0F34E3100BFC0F3C90200BF43F6AD
:100C6000E07303EA41134FF0404404EA82742343E3
:100C7000174C1034236000BF00BF131EA2F1010205
:100C8000EDD10B1EA1F10101E6D100BF00BF00BFF5
:100C9000BFF34F8F00BF00BF00BF0C4B1B6843F476
:100CA00080330A4C236000BF00BF00BFBFF34F8FEB
:100CB00000BF00BF00BF00BF00BF00BFBFF36F8F0A
:100CC00000BF00BF00BF00BF10BD000014ED00E07A
:100CD00050EF00E010B504460CB9124810BD012CCD
:100CE00001D10020FAE7022C01D10F48F6E7032CCE
:100CF00001D10020F2E7042C01D10020EEE7052C01
:100D000001D10020EAE7062C01D10020E6E7072CFC
:100D100001D10020E2E74FF48E7104A000F019F831
:100D20000020DBE7208000204C8800202E2E5C2E47
:100D30002E5C557365725C6273705C7372635C6287
:100D400073705F756172745F6669666F2E63000011
:100D5000704701B9704700BFFEE700000146074A2F
:100D600012780AB9002008E0054AC1F3C623D25C14
:100D7000C1F30223DA4002F00100704740950020E1
:100D8000C094002070B500BF0C48866900F0BCF923
:100D9000054600BF294609481830FFF729FD0446DB
:100DA00000BFB442F0D1A54206D200BF03481030C4
:100DB000FFF715FD00BF00BF284670BD409500201D
:100DC0002DE9F04104460D4616462046FFF7C6FFC2
:100DD00010B90120BDE8F081FFF7D4FF0746A4B2A7
:100DE00000BFEFF3058010B14FF4002000E00020B9
:100DF000044344F0407033462A46394600F03EF83A
:100E000080464046E6E72DE9F05F04460F469046EF
:100E10009946DDF828A02046FFF7A0FF10B9012071
:100E2000BDE8F09FFFF7AEFF8346A4B200BFEFF32B
:100E3000058010B14FF4002000E00020044300F0D2
:100E400085FC4FF4E02101EA004544EA050141F048
:100E5000807043463A46594600F010F806460EB9EF
:100E60000020DDE745F0010141F0007053464A469D
:100E7000594600F003F806463046D1E72DE9FF4F0A
:100E800081B0884691469A464FF0070B51E000BF6B
:100E90002E48FFF7A4FC064606F03F002C4901EB64
:100EA0000014B0094FF4700101EA00510091DDE92E
:100EB000001008434FF0805101EAD80108434FF079
:100EC000005101EA990108434FF0804101EA5A01BB
:100ED000084340F04065294604F10C00FFF790FC00
:100EE000054605F0806010B385F0806585F000450B
:100EF00005F0004728F000403843206029F000400A
:100F0000384360602AF000403843A060294604F16D
:100F10000C00FFF786FC48B100BF0C48001DFFF72E
:100F20005EFC00BF012005B0BDE8F08F04E0ABF12E
:100F3000010BBBF1000FAAD100BF00BF034808306E
:100F4000FFF74DFC00BF0020EDE7000044950020B6
:100F5000C0900020F0B506460C461546FF2C01D285
:100F6000FF2D01D30020F0BD002200231AE0012054
:100F700098403040A0B1214610E002EBD1000B4F69
:100F8000385C01F0070C012707FA0CF7384302EB35
:100F9000D107DFF818C00CF80700491CA942ECD9AA
:100FA00020325B1C042BE2D30120DCE7C09400203C
:100FB0002DE9F05F82468946002041490870802172
:100FC0004048FFF7FBFC18213F4804F0AEFD804687
:100FD0003B48006A3D49884208D0084638490862C3
:100FE0000846A0F802800120C8610FE0344840881C
:100FF000404506D03248A0F8028001203049C8613F
:1010000004E02F48C069401C2D49C8612C48C069C4
:1010100001280BD100202A49487048608860C860C8
:101020004FF480612A48FFF7C9FC0FE000270BE06E
:10103000274800EB0715E86800F0806018B1E86801
:1010400020F04060E8607F1C402FF1D31C48C0694D
:1010500001280FD100F064F804461CB100F05AF8E2
:10106000064600E0002616484661002014498861C3
:10107000086102E000F054F80446ECB1FE220021C1
:101080005046FFF767FFEF2211460F20FFF762FF80
:10109000FE2211460420FFF75DFFFFF773FE834633
:1010A000074800235946C2690A48FFF7E7FEB9F12D
:1010B000000F01D000F010F82046BDE8F09F0000BE
:1010C00040950020C0940020947700086B27A5E18C
:1010D000C090002000FF000310B50948007808B157
:1010E000012010BD012006490870FFF74BFE0446A1
:1010F00000231A4621460348FFF7C0FE0120F0E70F
:101100004095002001FF000301484068704700003F
:10111000001000E00148006870470000887E002051
:101120000648006840F08070044908600448006880
:1011300040F001000249086001207047FCED00E02A
:10114000001000E010B50446002221460148FFF7D8
:1011500037FE10BD01F3010010B504460022214600
:101160000148FFF72DFE10BD05F3020010B504463F
:10117000002221464FF47340FFF722FE10BD00000D
:1011800010B50446002221460148FFF719FE10BDA4
:1011900003F3020010B50446002221460148FFF780
:1011A0000FFE10BD02F3010010B5044600222146D7
:1011B0000148FFF705FE10BD04F3020010B5044618
:1011C000002221460148FFF7FBFD10BD0DF502008E
:1011D00010B50446002221464FF47140FFF7F0FDA0
:1011E00010BD000010B50446002221460148FFF75B
:1011F000E7FD10BD06F1010010B5044600222146AE
:101200000148FFF7DDFD10BD13F1010010B500220C
:1012100011460248FFF7D4FD10BD000001F10100A6
:1012200010B5002211460248FFF7CAFD10BD0000AC
:1012300002F1020010B5002211460248FFF7C0FD7E
:1012400010BD000007F1010010B500221146024850
:10125000FFF7B6FD10BD000008F10200F8B5044626
:101260000D4616461F4633462A4621460248009739
:10127000FFF7C9FDF8BD000001F0020070B504469B
:101280000D462A4621460248FFF79AFD70BD000030
:1012900004F00200F8B504460D4616460020334619
:1012A0002A46214600900248FFF7ADFDF8BD000038
:1012B00005F00200F8B504460D4616461F463346B3
:1012C0002A46214602480097FFF79DFDF8BD000021
:1012D00003F00200F8B504460D46164600203346DA
:1012E0002A46214600900248FFF78DFDF8BD000018
:1012F00002F00200F8B504460D46164600203346BB
:101300002A46214600904FF43C30FFF77CFDF8BDA3
:1013100010B50446002221460148FFF751FD10BDDB
:1013200008F9020070B504460D462A4621460248D7
:10133000FFF746FD70BD000003FA020070B50446D9
:101340000D462A4621464FF47A40FFF739FD70BD1D
:10135000F8B504460D4616461F4633462A46214632
:1013600002480097FFF74FFDF8BD00000CFA01009E
:10137000F8B504460D461646002033462A46214657
:1013800000900248FFF73FFDF8BD00000DFA020093
:1013900010B50446002221460148FFF711FD10BD9B
:1013A0000EFA020070B504460D462A462146024850
:1013B000FFF706FD70BD000009FA020070B5044693
:1013C0000D462A4621460248FFF7FAFC70BD000090
:1013D0000AFA0200F8B504460D46164600203346C8
:1013E0002A46214600900248FFF70DFDF8BD000097
:1013F00001FA010070B504460D462A46214602480E
:10140000FFF7DEFC70BD00000BFA020070B5044669
:101410000D462A4621460248FFF7D2FC70BD000067
:1014200010FA0200F8B504460D4616461F4633462C
:101430002A46214602480097FFF7E5FCF8BD000068
:1014400006FA0100F8B504460D461646002033465C
:101450002A46214600900248FFF7D5FCF8BD00005F
:1014600007FA020010B50446002221460148FFF7A2
:10147000A7FC10BD08FA020070B504460D462A46C6
:1014800021460248FFF79CFC70BD00000FFA0200E5
:1014900010B50446002221460148FFF791FC10BD1B
:1014A00008F7020070B504460D462A462146024858
:1014B000FFF786FC70BD000009F7020070B5044616
:1014C0000D462A4621460248FFF77AFC70BD00000F
:1014D0000CF7020010B50446002221460148FFF730
:1014E0006FFC10BD08F8020070B504460D462A4690
:1014F00021460248FFF764FC70BD000016F20300AD
:1015000070B504460D4616462EB1324621460548B2
:10151000FFF756FC05E02A46214602482938FFF726
:101520004FFC70BD2CF2020010B50446002221468B
:101530000148FFF745FC10BD1CF2020070B50446DF
:101540000D462A4621464FF47240FFF739FC70BD24
:1015500010B5002211460248FFF732FC10BD000012
:101560001AF20100F8B504460D4616461F463346EA
:101570002A46214602480097FFF745FCF8BD0000C7
:1015800009F4020010B50446002221460148FFF785
:1015900017FC10BD08F4020010B5044600222146D5
:1015A0000148FFF70DFC10BD15F20200F8B5044626
:1015B0000D461646002033462A4621460090024832
:1015C000FFF721FCF8BD000001F2010010B5044650
:1015D000002221460148FFF7F3FB10BD18F203007B
:1015E00010B50446002221460148FFF7E9FB10BD73
:1015F00019F2020070B504460D462A4621460248FB
:10160000FFF7DEFB70BD000017F2030070B5044663
:101610000D462A4621460248FFF7D2FB70BD000066
:1016200001F6020070B504461D460023B5F5804F53
:1016300013D154F822300C480340D1E9000640EAA7
:1016400006108E6840EA06208E8940EA06408E69C0
:101650003043034344F8223003E06FF0704044F815
:101660002200002070BD00000000F0CF10B502463F
:101670000023086852F820301B480340D1E90104D8
:101680002043CC6820430C6920434C6920438C697B
:101690002043CC6920430C6A20434C6A20438C6A67
:1016A0002043CC6A20430C6B20438C6B20434C6B53
:1016B000204303438868082801D143F040030868A9
:1016C00042F82030086BB0F5801F05D1086818B1CA
:1016D00010680C6B20431060086818B110684C6BE0
:1016E00020431060002010BD8004C0FF30B50346C9
:1016F00014460022601C53F8202002F04042D1E939
:10170000000540EA05108D6840EA05208D8940EA11
:101710000545088A401E45EA0055087D801E45EAB9
:1017200000608D6928430243601C43F8202018683C
:1017300000F4801038B1586820F47002088A401E06
:1017400042EA00525A60002030BD000010B5024845
:10175000FFF73CF810BD00004195002003480068E9
:1017600040F0010001490860704700002004005863
:10177000F8B502460B460021002600240020824DC9
:1017800000BFFCE0012707FA01F61F6807EA06041C
:10179000B4427CD15F68022F02D05F68122F1AD149
:1017A0004FEAD10C02F1200757F82C004F074FEAFF
:1017B000D76C0F2707FA0CF7B8434FEA417C4FEA82
:1017C000DC6C1F6907FA0CF738434FEAD10C02F1C1
:1017D000200747F82C0010684FEA410C032707FA4E
:1017E0000CF7B8431F7907F003074FEA410C07FADB
:1017F0000CF7384310605F68012F08D05F68022F34
:1018000005D05F68112F02D05F68122F17D1906842
:101810004FEA410C032707FA0CF7B8434FEA410C93
:10182000DF6807FA0CF738439060506801278F4053
:10183000B8431F79C7F300178F4038435060D06812
:101840004FEA410C032707FA0CF7B8434FEA410C63
:101850009F6807FA0CF73843D0605F6807F080573D
:10186000B7F1805F95D100BF484F3F6847F002074E
:10187000DFF818C1CCF8007067463F6807F0020730
:10188000009700BF00BF424F4FEA910C00E075E0A7
:1018900057F82C008F074FEA177C0F2707FA0CF731
:1018A000B8433C4FBA4201D100272DE03A4FBA422B
:1018B00001D1012728E0394FBA4201D1022723E0A4
:1018C000374FBA4201D103271EE0364FBA4201D149
:1018D000042719E0344FBA4201D1052714E0334FF1
:1018E000BA4201D106270FE0314FBA4201D1072792
:1018F0000AE0304FBA4201D1082705E02E4FBA4224
:1019000001D1092700E00A274FEA817C4FEA1C7CBD
:1019100007FA0CF738431E4F4FEA910C47F82C009A
:101920002868A0435F6807F48037B7F5803F00D18F
:10193000204328606868A0435F6807F40037B7F564
:10194000003F00D1204368604FF0B0473868A043A3
:101950005F6807F48017B7F5801F00D120434FF070
:10196000B04738607868A0435F6807F40017B7F5A0
:10197000001F00D120434FF0B0477860491C102968
:10198000FFF400AFF8BD000080000058F444025896
:1019900008040058000002580004025800080258C9
:1019A000000C025800100258001402580018025887
:1019B000001C0258002002580024025810B504F000
:1019C000EFF9022802D104F003FA10BD0C480068B8
:1019D000840B0CE000BF00BF00BF00BF00BF00BF12
:1019E00000BF00BF00BF00BF00BF00BF641E002CCF
:1019F000F0D104480068401C02490860E5E7000097
:101A0000887E0020847E002010B5032000F0D2F8EC
:101A1000012000F007F808B1012010BD00F06AF8BD
:101A20000020FAE701460020704700004178154A7F
:101A300011600178F9B1121D41681160017B09073D
:101A4000C27A41EA0261827A41EAC241427B41EABA
:101A50008241827B41EA4241C27B41EA0241427AB1
:101A600041EA0221027A41EA420102781143054A21
:101A70000832116005E00021024A121D1160121D9A
:101A80001160704798ED00E000BF00BF00BFBFF3DA
:101A90005F8F00BF00BF00BF0548006820F48030A2
:101AA0000349086000200249703108607047000057
:101AB00024ED00E040F001010D4A11600C4970393D
:101AC000096841F480310A4A703A116000BF00BFD2
:101AD00000BFBFF34F8F00BF00BF00BF00BF00BFFC
:101AE00000BFBFF36F8F00BF00BF00BF7047000093
:101AF00094ED00E008B500BF0648006840F0020021
:101B0000044908600846006800F00200009000BF29
:101B100000BF08BDF444025801460846002809DB0E
:101B200000F01F0301229A4043099B0003F1E023C8
:101B3000C3F8002100BF70472DE9F05F80460D46D5
:101B4000164603F019FD074639462A46334601F08A
:101B50000700C0F1070ABAF1040F02D94FF0040AD6
:101B600001E0C0F1070AD14600F1040ABAF1070FFB
:101B700002D24FF0000A01E0A0F1030AD4464FF070
:101B8000010A0AFA09FAAAF1010A0AEA020A0AFA99
:101B90000CFA4FF0010B0BFA0CFBABF1010B0BEA4B
:101BA000030B4AEA0B042146404603F0EDFCBDE876
:101BB000F09F000000BF00F00702064B19684FF6C7
:101BC000FF031940044B0B4343EA0221014B196008
:101BD00000BF70470CED00E00000FA0510B501F001
:101BE00067F90949096801F470614FF4807292FA4B
:101BF000A2F2B2FA82F2D140044A515CC8400449D0
:101C000008600846006810BD18440258F0760008C5
:101C1000887E002010B501F003F90749096801F03A
:101C20007001102292FAA2F2B2FA82F2D140034A73
:101C3000515CC84010BD000020440258F0760008F6
:101C400070B5014600220120002300249FED811A77
:101C5000B0EE410A9FED7F1AF0EE410A7E4D2D68ED
:101C600005F003027C4D2D68C5F305307A4D2D1D1E
:101C70002D6805F01003784D14352D68C5F3CC059B
:101C800015FB03F501EE105AB8EE411AB0EE410A09
:101C900022B1012A4DD0022A7DD169E06E4D283D46
:101CA0002D68C5F340152DB36B4D283D2D68C5F348
:101CB000C1066A4D25FA06F4B4FBF0F501EE105AA0
:101CC000F8EE411A9FED661A80EE012A624D10353A
:101CD0002D68C5F3080501EE105AB8EE411A32EE30
:101CE000011AB7EE002A31EE021A21EE811AF0EE47
:101CF000410A1DE0594DB5FBF0F501EE105AF8EE22
:101D0000411A9FED571A80EE012A534D10352D6868
:101D1000C5F3080501EE105AB8EE411A32EE011A69
:101D2000B7EE002A31EE021A21EE811AF0EE410AD6
:101D30005EE04C4DB5FBF0F501EE105AB8EE412ACD
:101D40009FED471AC0EE011A434D10352D68C5F3BB
:101D5000080501EE105AB8EE411A31EE811AF7EE7D
:101D6000001A31EE211A22EE011AF0EE410A3FE08C
:101D70003D4DB5FBF0F501EE105AF8EE411A9FED1E
:101D8000381A80EE012A344D10352D68C5F3080548
:101D900001EE105A00E00CE0B8EE411A32EE011AE2
:101DA000B7EE002A31EE021A21EE811AF0EE410A56
:101DB0001EE02C4DB5FBF0F501EE105AB8EE412AAD
:101DC0009FED271AC0EE011A234D10352D68C5F37B
:101DD000080501EE105AB8EE411A31EE811AF7EEFD
:101DE000001A31EE211A22EE011AF0EE410A00BF6C
:101DF00000BF194D10352D68C5F346256D1C01EE49
:101E0000105AB8EE411AC0EE811ABCEEE11A81ED0B
:101E1000001A114D10352D68C5F306456D1C01EEF5
:101E2000105AB8EE411AC0EE811ABCEEE11A81EDEB
:101E3000011A094D10352D68C5F306656D1C01EEBC
:101E4000105AB8EE411AC0EE811ABCEEE11A81EDCB
:101E5000021A70BD00000000284402580090D00310
:101E60000000004600093D0040787D0170B5014644
:101E700000220120002300249FED811AB0EE410AC8
:101E80009FED7F1AF0EE410A7E4D2D6805F00302AA
:101E90007C4D2D68C5F305507A4D2D1D2D6805F438
:101EA0008073784D1C352D68C5F3CC0515FB03F503
:101EB00001EE105AB8EE411AB0EE410A22B1012AE1
:101EC0004DD0022A7DD169E06E4D283D2D68C5F3C5
:101ED00040152DB36B4D283D2D68C5F3C1066A4DE5
:101EE00025FA06F4B4FBF0F501EE105AF8EE411AAB
:101EF0009FED661A80EE012A624D18352D68C5F3F4
:101F0000080501EE105AB8EE411A32EE011AB7EE8A
:101F1000002A31EE021A21EE811AF0EE410A1DE08C
:101F2000594DB5FBF0F501EE105AF8EE411A9FED50
:101F3000571A80EE012A534D18352D68C5F3080550
:101F400001EE105AB8EE411A32EE011AB7EE002A2D
:101F500031EE021A21EE811AF0EE410A5EE04C4D9C
:101F6000B5FBF0F501EE105AB8EE412A9FED471A85
:101F7000C0EE011A434D18352D68C5F3080501EE72
:101F8000105AB8EE411A31EE811AF7EE001A31EE0E
:101F9000211A22EE011AF0EE410A3FE03D4DB5FB59
:101FA000F0F501EE105AF8EE411A9FED381A80EE66
:101FB000012A344D18352D68C5F3080501EE105A75
:101FC00000E00CE0B8EE411A32EE011AB7EE002A3A
:101FD00031EE021A21EE811AF0EE410A1EE02C4D7C
:101FE000B5FBF0F501EE105AB8EE412A9FED271A25
:101FF000C0EE011A234D18352D68C5F3080501EE12
:10200000105AB8EE411A31EE811AF7EE001A31EE8D
:10201000211A22EE011AF0EE410A00BF00BF194D4D
:1020200018352D68C5F346256D1C01EE105AB8EE23
:10203000411AC0EE811ABCEEE11A81ED001A114D71
:1020400018352D68C5F306456D1C01EE105AB8EE23
:10205000411AC0EE811ABCEEE11A81ED011A094D58
:1020600018352D68C5F306656D1C01EE105AB8EEE3
:10207000411AC0EE811ABCEEE11A81ED021A70BD60
:1020800000000000284402580090D00300000046E1
:1020900000093D0040787D012DE9F041044600250E
:1020A0000026206800F00060B0F1006F30D1606E53
:1020B00048B1B0F5801F0DD0B0F5001F10D0B0F5BD
:1020C000401F15D113E0F948006840F40030F7498B
:1020D00008600FE00221201D01F0EEFF054609E037
:1020E000022104F1240002F07FF8054602E001E03D
:1020F000012500BF00BF55B9EC482430006820F42A
:102100004010616E0843E9492431086000E02E4325
:10211000208800F48070B0F5807F2DD1606D052897
:102120001AD2DFE800F0030A10171800DF48006831
:1021300040F40030DD49086010E00021201D01F06E
:10214000BBFF05460AE0002104F1240002F04CF830
:10215000054603E002E001E0012500BF00BF55B9DC
:10216000D2482430006820F00700616D0843CF4951
:102170002431086000E02E43208800F40070B0F5A0
:10218000007F33D1A06D802817D003DC40B14028F8
:102190001CD10CE0C02817D0B0F5807F16D114E018
:1021A000C248006840F40030C049086010E00021D7
:1021B000201D01F081FF05460AE0002104F1240002
:1021C00002F012F8054603E002E001E0012500BF3D
:1021D00000BF55B9B5482430006820F4E070A16D07
:1021E0000843B2492431086000E02E43208800F4FF
:1021F0008060B0F5806F38D1D4F8A400B0F5800FBE
:1022000019D004DC50B1B0F5001F1DD10DE0B0F5C0
:10221000C00F17D0B0F5000F16D114E0A348006826
:1022200040F40030A149086010E00021201D01F0B9
:1022300043FF05460AE0002104F1240001F0D4FF29
:10224000054603E002E001E0012500BF00BF5DB9E3
:1022500096482C30006820F46000D4F8A41008439D
:1022600092492C31086000E02E43208800F4006081
:10227000B0F5006F38D1D4F8A800B0F1007F19D0C4
:1022800004DC50B1B0F1807F1DD10DE0B0F1407F92
:1022900017D0B0F1806F16D114E08448006840F484
:1022A00000308249086010E00021201D01F004FF89
:1022B00005460AE0002104F1240001F095FF0546DF
:1022C00003E002E001E0012500BF00BF5DB97748EF
:1022D0002C30006820F0E060D4F8A810084373495F
:1022E0002C31086000E02E43206800F00070B0F14F
:1022F000007F27D1A06CA0B1102804D0202809D0DD
:1023000030280FD10CE06948006840F4003067497C
:10231000086009E00221201D01F0CEFE054603E021
:1023200002E001E0012500BF00BF55B95F48203041
:10233000006820F03000A16C08435C49203108603F
:1023400000E02E43208800F48050B0F5805F36D145
:10235000E06DB0F5005F19D004DC50B1B0F5805FDE
:102360001DD10DE0B0F5405F17D0B0F5804F16D10C
:1023700014E04E48006840F400304C49086010E01A
:102380000021201D01F098FE05460AE0002104F11D
:10239000240001F029FF054603E002E001E00125E9
:1023A00000BF00BF55B941482430006820F4E04028
:1023B000E16D08433D492431086000E02E43208848
:1023C00000F40050B0F5005F34D1206EB0F5403F0E
:1023D0001DD007DC68B1B0F5803F0BD0B0F5003FF1
:1023E00018D10DE0B0F5802F12D0B0F5A02F11D18B
:1023F0000FE011E00121201D01F05EFE05460BE01B
:10240000012104F1240001F0EFFE054604E003E0A1
:1024100002E001E0012500BF00BF55B92348243088
:10242000006820F4E020216E084320492431086030
:1024300000E02E43208800F48040B0F5804F38D172
:10244000D4F8AC00B0F1405F1DD007DC68B1B0F14A
:10245000805F0BD0B0F1005F18D10DE0B0F1804F7C
:1024600012D0B0F1A04F11D10FE011E00121201DD9
:1024700001F022FE05460BE0012104F1240001F0E9
:10248000B3FE054604E003E002E001E0012500BFE1
:1024900000BF6DB905482C30006820F0E040D4F84A
:1024A000AC10084301492C31086002E02C4402586A
:1024B0002E43208800F40040B0F5004F26D1E06E96
:1024C00098B1B0F1805F03D0B0F1005F0ED106E0AB
:1024D000FA48006840F40030F849086008E001213B
:1024E000201D01F0E9FD054602E001E0012500BFE5
:1024F00000BF55B9F1482430006820F04050E16E2B
:102500000843EE492431086000E02E43206800F0C3
:102510008070B0F1807F27D1606CA0B1012804D019
:10252000022809D003280FD10CE0E448006840F4E9
:102530000030E249086009E00221201D01F0BCFDE5
:10254000054603E002E001E0012500BF00BF55B9E8
:10255000DA482030006820F00300616C0843D74956
:102560002031086000E02E43206800F48000B0F5C0
:10257000800F7DD1D248006840F48070D049086057
:10258000FFF71CFA074606E0FFF718FAC01B64289D
:1025900001D9032505E0CA48006800F480700028CE
:1025A000F2D000BF8DBBC5484430006800F44070D5
:1025B000B4F8B01001F44071884214D0BF484430E0
:1025C000006820F44078BD484430006840F4803012
:1025D000BA49443108600846006820F48030086039
:1025E0000846C0F80080D4F8B000B0F5807F15D15F
:1025F000FFF7E4F9074609E0FFF7E0F9C01B41F2F5
:102600008831884202D9032507E038E0AB484430DE
:102610000068C0F340000028EED000BF4DBB00BFF3
:10262000B4F8B00000F44070B0F5407F0ED1A3487C
:102630001C38006820F47C51A24AD4F8B000104045
:1026400041EA10109D491C39086007E09B481C387E
:10265000006820F47C5099491C3908609748443040
:102660000068B4F8B010C1F30B010843934901E0CE
:1026700006E002E04431086002E02E4300E02E4311
:10268000207800F0010068B3A06F182819D005DC8D
:1026900048B1082808D0102816D10BE0202811D006
:1026A000282811D10FE011E00121201D01F004FDC7
:1026B00005460BE0012104F1240001F095FD0546DB
:1026C00004E003E002E001E0012500BF00BF55B9CE
:1026D0007A482830006820F03800A16F0843774915
:1026E0002831086000E02E43207800F00200022824
:1026F00028D1606F062815D2DFE800F003040A1124
:10270000121311E00121201D01F0D6FC05460BE05B
:10271000012104F1240001F067FD054604E003E017
:1027200002E001E0012500BF00BF55B96348283031
:10273000006820F00700616F084360492831086095
:1027400000E02E43207800F0040004282AD1D4F8B9
:102750009000062815D2DFE800F003040A111213D6
:1027600011E00121201D01F0A7FC05460BE001212D
:1027700004F1240001F038FD054604E003E002E026
:1027800001E0012500BF00BF5DB94C482C30006856
:1027900020F00700D4F89010084348492C31086015
:1027A00000E02E43207800F02000202836D1D4F815
:1027B0008C00B0F1405F1DD007DC68B1B0F1805FE4
:1027C0000BD0B0F1005F18D10DE0B0F1804F12D006
:1027D000B0F1A04F11D10FE011E00021201D01F058
:1027E0006BFC05460BE0022104F1240001F0FCFC27
:1027F000054604E003E002E001E0012500BF00BF60
:102800005DB92E482830006820F0E040D4F88C10E4
:1028100008432A492831086000E02E43207800F060
:102820004000402836D1D4F89800B0F5406F1DD054
:1028300007DC68B1B0F5806F0BD0B0F5006F18D130
:102840000DE0B0F5805F12D0B0F5A05F11D10FE0C0
:1028500011E00021201D01F02FFC05460BE00221B4
:1028600004F1240001F0C0FC054604E003E002E0AE
:1028700001E0012500BF00BF5DB910482C300068A1
:1028800020F4E050D4F8981008430C492C3108602B
:1028900000E02E43207800F0800080283BD1D4F85F
:1028A0009C00B0F5C04F24D00EDCA0B1B0F5005FA5
:1028B00012D0B0F5804F1FD114E000002C44025814
:1028C00000480258FFFCFF0FB0F5004F12D0B0F5E2
:1028D000204F11D10FE011E00021201D01F0ECFB91
:1028E00005460BE0022104F1240001F07DFC0546C1
:1028F00004E003E002E001E0012500BF00BF4DB9A4
:10290000B248006820F46040D4F89C100843AF49F6
:10291000086000E02E43207800F00800082816D157
:10292000D4F88000B0F5805F06D1022104F12400C4
:1029300001F05AFC06430AE0A448001F006820F496
:102940004050D4F880100843A049091F086020783F
:1029500000F01000102814D1D4F89400B0F5807F56
:1029600006D1022104F1240001F03EFC064308E0F8
:102970009648006820F44070D4F8941008439349B6
:102980000860206800F40020B0F5002F26D1D4F8AC
:10299000A00030B1B0F5803F09D0B0F5003F0ED1B6
:1029A0000CE00021201D01F087FB054609E0022113
:1029B00004F1240001F018FC054602E001E00125C5
:1029C00000BF00BF4DB98148006820F44030D4F802
:1029D000A01008437D49086000E02E43206800F401
:1029E0008020B0F5802F2DD1D4F88400B0F5801F61
:1029F00006D0B0F5001F0CD0B0F5401F11D10FE08C
:102A000072482C38006840F4003070492C39086056
:102A100009E0012104F1240001F0E6FB054602E093
:102A200001E0012500BF00BF5DB96848001F0068D4
:102A300020F44010D4F8841008436449091F08604A
:102A400000E02E43206800F48030B0F5803F24D1B0
:102A5000E06C18B1B0F5803F0FD108E05B482C382E
:102A6000006840F4003059492C39086007E0022121
:102A7000201D01F021FB054601E0012500BF00BF3C
:102A800055B952480C38006820F48030E16C084396
:102A90004E490C39086000E02E43206800F00050D9
:102AA000B0F1005F05D1022104F1240001F09CFB8C
:102AB0000643206800F40030B0F5003F27D1E06FF6
:102AC000A0B1B0F5807F06D0B0F5007F0CD0B0F596
:102AD000407F0CD109E03D482C38006840F40030BC
:102AE0003A492C39086004E003E002E001E00125E6
:102AF00000BF00BF55B93548001F006820F4407082
:102B0000E16F08433149091F086000E02E43206847
:102B100000F48010B0F5801F09D12C4808380068F7
:102B200020F00040216F08432849083908602068D8
:102B300000F08050B0F1805F0AD124484838006826
:102B400020F48040D4F8B410084320494839086084
:102B5000206800F40010B0F5001F09D11B480838A8
:102B6000006820F08070A16E084318490839086099
:102B7000206800F08040B0F1804F11D100BF1348B1
:102B80004838006820F40040104948390860084679
:102B90000068D4F8B81008430C494839086000BFF1
:102BA000206800F00040B0F1004F09D107480C3810
:102BB000006820F04050216D084304490C3908603A
:102BC00016B90020BDE8F0810120FBE75844025807
:102BD00070B504460D4600268D48006800F00700D9
:102BE000A8420ED28A48006820F00700284388498E
:102BF00008600846006800F00700A84201D00120E4
:102C000070BD207800F00200022807D181480068DA
:102C100020F00F00E16808437E490860207800F04A
:102C20000100002851D07B48006820F47060A16842
:102C30000843784908606068022807D17548183849
:102C40000068C0F34040F8B90120D9E76068032864
:102C500007D1704818380068C0F34060A0B901205F
:102C6000CEE76068012807D16A4818380068C0F3C9
:102C7000002048B90120C3E7664818380068C0F34F
:102C8000800008B90120BBE762480838006820F0DE
:102C90000700616808435F4908390860FEF78EFE47
:102CA00006466068022811D108E0FEF787FE801B07
:102CB00041F28831884201D90320A1E755480838FC
:102CC000006800F038001028EFD13AE0606803286F
:102CD00011D108E0FEF772FE801B41F28831884274
:102CE00001D903208CE74B480838006800F0380011
:102CF0001828EFD125E06068012811D108E0FEF71F
:102D00005DFE801B41F28831884201D9032077E7BC
:102D100040480838006800F038000828EFD110E07B
:102D200008E0FEF74BFE801B41F28831884201D952
:102D3000032065E737480838006800F038000028AD
:102D4000EFD13348006800F00700A8420ED93048A0
:102D5000006820F0070028432D49086008460068F5
:102D600000F00700A84201D0012049E7207800F0D8
:102D70000400042807D12748006820F0700021696A
:102D8000084324490860207800F00800082809D189
:102D90002048001D006820F07000616908431D494B
:102DA000091D0860207800F01000102809D119488A
:102DB000001D006820F4E060A16908431549091D61
:102DC0000860207800F02000202809D11148083040
:102DD000006820F07000E16908430E49083108607E
:102DE00000F066F80B49096801F470614FF48072D5
:102DF00092FAA2F2B2FA82F2D140074A515CC8407C
:102E0000064908600120FEF70DFE0020F8E60000EC
:102E10000020005218440258F0760008887E0020F6
:102E200010B5FEF7DBFE0949096801F00F01012228
:102E300092FAA2F2B2FA82F2D140054A515CC8403D
:102E4000044908600846006810BD00001844025894
:102E5000F07600088C7E002010B5FFF7E1FF0749EF
:102E6000096801F07001102292FAA2F2B2FA82F21D
:102E7000D140034A515CC84010BD00001C440258B8
:102E8000F076000810B5FFF7CBFF0749096801F499
:102E9000E0614FF4807292FAA2F2B2FA82F2D1406B
:102EA000024A515CC84010BD1C440258F07600082C
:102EB00070B5012500EE905A002201210023002464
:102EC000DFED861AB0EE610ADFED841AB0EE611A0A
:102ED0000020834D2D6805F0380535B1082D15D03B
:102EE000102D15D0182D7CD114E07D4D103D2D688E
:102EF000C5F3401545B17A4D103D2D68C5F3C106A7
:102F0000784D25FA06F000E07648E5E07648E3E003
:102F10007648E1E0724D18352D6805F00302704DDA
:102F200018352D68C5F305116D4D1C352D6805F05C
:102F300001036B4D24352D68C5F3CC0515FB03F556
:102F400001EE905AF8EE611AB0EE610A22B1012A40
:102F50004FD0022A7DD16BE0614D103D2D68C5F345
:102F600040152DB35E4D103D2D68C5F3C1065D4D76
:102F700025FA06F4B4FBF1F501EE905AB8EE612A99
:102F8000DFED5B1AC0EE212A554D20352D68C5F3C3
:102F9000080501EE905AF8EE611A72EEA11AF7EEEA
:102FA000002A71EEA21A62EE211AB0EE611A1FE039
:102FB0004C4DB5FBF1F501EE905AB8EE612ADFED0C
:102FC0004C1AC0EE212A464D20352D68C5F3080560
:102FD00001EE905AF8EE611A72EEA11AF7EE002A8D
:102FE00000E077E071EEA21A62EE211AB0EE611AEB
:102FF0005EE03D4DB5FBF1F501EE905AB8EE612A69
:10300000DFED3B1AC0EE212A354D20352D68C5F382
:10301000080501EE905AF8EE611A72EEA11AF7EE69
:10302000002A71EEA21A62EE211AB0EE611A3FE098
:103030002E4DB5FBF1F501EE905AB8EE612ADFEDA9
:103040002C1AC0EE212A264D20352D68C5F308051F
:1030500000E00EE001EE905AF8EE611A72EEA11A4D
:10306000F7EE002A71EEA21A62EE211AB0EE611A92
:103070001EE01D4DB5FBF1F501EE905AF8EE612A08
:10308000DFED1B1A80EE212A154D20352D68C5F382
:10309000080501EE905AF8EE611A72EE211AB7EEA9
:1030A000002A71EE821A62EEA11AB0EE611A00BF18
:1030B00000BF0B4D20352D68C5F346256D1C00EE75
:1030C000905AF8EE601A81EE212AFCEEC21A11EE37
:1030D000900A01E0044800BF00BF70BD000000007E
:1030E000104402580090D00300093D0040787D0153
:1030F0000000004670B504460025207800F001006D
:10310000002872D0F948006800F0380010280CD070
:10311000F648006800F03800182812D1F34818303B
:10312000006800F0030002280BD1F0481038006856
:10313000C0F3404000286DD0606800286AD10120AB
:1031400070BD00BF6068B0F5803F08D1E748103817
:10315000006840F48030E549103908602EE060686E
:1031600068B9E2481038006820F48030DF4910392F
:1031700008600846006820F4802008601EE060684F
:10318000B0F5A02F0DD1D9481038006840F4802048
:10319000D649103908600846006840F4803008605D
:1031A0000CE0D2481038006820F48030CF49103944
:1031B00008600846006820F48020086000BF60684E
:1031C000A0B1FEF7FBFB054608E0FEF7F7FB401B4E
:1031D00041F28831884201D90320B1E7C348103851
:1031E0000068C0F340400028EFD013E0FEF7E6FB94
:1031F000054608E0FEF7E2FB401B41F288318842B9
:1032000001D903209CE7B94810380068C0F340405A
:103210000028EFD1207800F00200022847D1B348FF
:10322000006800F0380058B1B048006800F038007D
:1032300018283ED1AD481830006800F00300B8BB34
:10324000AA4810380068C0F3800018B1E06808B9D7
:10325000012075E7A5481038006820F01900E168E2
:103260000843A24910390860FEF7A8FB054606E0AE
:10327000FEF7A4FB401B022801D9032060E79B480E
:1032800010380068C0F380000028F1D097480C384F
:10329000006820F47C304FF47C3292FAA2F2B2FA49
:1032A00082F221699140084390490C3908604AE054
:1032B000FFE7E06868B38D481038006820F0190017
:1032C000E1680843894910390860FEF777FB054635
:1032D00006E0FEF773FB401B022801D903202FE70D
:1032E000824810380068C0F380000028F1D07F4881
:1032F0000C38006820F47C304FF47C3292FAA2F251
:10330000B2FA82F221699140084378490C39086089
:1033100019E076481038006820F001007349103930
:103320000860FEF74BFB054606E0FEF747FB401B37
:10333000022801D9032003E76C4810380068C0F365
:1033400080000028F1D1207800F01000102877D1FB
:103350006648006800F0380008280CD06348006810
:1033600000F03800182823D160481830006800F0B9
:10337000030001281CD15D4810380068C0F300200C
:1033800020B1E069802801D00120D9E657480C38E7
:10339000006820F0F8404FF0F84292FAA2F2B2FA38
:1033A00082F2216A9140084350490C39086047E095
:1033B000E06958B34D481038006840F080004B4930
:1033C00010390860FEF7FAFA054606E0FEF7F6FA4D
:1033D000401B022801D90320B2E644481038006897
:1033E000C0F300200028F1D040480C38006820F0DD
:1033F000F8404FF0F84292FAA2F2B2FA82F2216A51
:103400009140084339490C39086019E037481038B1
:10341000006820F08000354910390860FEF7CEFAC8
:10342000054606E0FEF7CAFA401B022801D9032030
:1034300086E62E4810380068C0F300200028F1D13D
:10344000207800F00800082836D16069D0B12748FC
:103450006430006840F00100244964310860FEF7E0
:10346000ADFA054606E0FEF7A9FA401B022801D98D
:10347000032065E61D4864300068C0F34000002862
:10348000F1D019E019486430006820F001001749B4
:1034900064310860FEF792FA054606E0FEF78EFA00
:1034A000401B022801D903204AE610486430006816
:1034B000C0F340000028F1D1207800F0200020283F
:1034C00034D1A069D8B109481038006840F4805060
:1034D000064910390860FEF771FA054608E0FEF764
:1034E0006DFA401B022803D9032029E61044025834
:1034F000AF480068C0F340300028F0D016E0AC4878
:10350000006820F48050AA490860FEF757FA054683
:1035100006E0FEF753FA401B022801D903200FE60C
:10352000A3480068C0F340300028F2D1207800F0B2
:10353000040004287DD19F48006840F480709D49B4
:103540000860FEF73BFA054606E0FEF737FA401B37
:10355000642801D90320F3E59648006800F48070E0
:103560000028F2D000BFA068012808D19048703030
:10357000006840F001008E49703108602DE0A068BD
:1035800068B98B487030006820F0010088497031BC
:1035900008600846006820F0040008601DE0A0688C
:1035A00005280DD182487030006840F00400804941
:1035B000703108600846006840F0010008600CE0C7
:1035C0007B487030006820F0010079497031086054
:1035D0000846006820F00400086000BFA068A0B1A1
:1035E000FEF7ECF9054608E0FEF7E8F9401B41F26A
:1035F0008831884201D90320A2E56D487030006807
:10360000C0F340000028EFD013E0FEF7D7F90546DD
:1036100008E0FEF7D3F9401B41F28831884201D916
:1036200003208DE5624870300068C0F34000002838
:10363000EFD1606A00287CD05D481030006800F04F
:103640003800182876D0606A022874D1584800687B
:1036500020F0807056490860FEF7B0F9054606E094
:10366000FEF7ACF9401B022801D9032068E5504859
:103670000068C0F340600028F2D100BFD4E90A100E
:1036800041EA00104A492831096840F2F332914377
:103690000843474928310860208E401EC0F30800C7
:1036A000616B491E4FF47E4202EA41210843218F9B
:1036B000491ED20102EA014108433C21095D491E2D
:1036C000120202EA0161084339493031086000BF43
:1036D000081D00684FF6F87188434FF6F87292FAA9
:1036E000A2F2B2FA82F2A16C91400843304934311F
:1036F00008602F482C30006820F00C00216C084333
:103700002B492C3108600846006820F00200616CEB
:10371000084327492C3108600846006840F480308F
:1037200008600846006840F40030086008460068F9
:1037300002E03BE038E01FE040F4802008600846EB
:10374000006840F0010008601948006840F080708F
:1037500017490860FEF732F9054606E0FEF72EF934
:10376000401B022801D90320EAE411480068C0F395
:1037700040600028F2D019E00D48006820F0807009
:103780000B490860FEF71AF9054606E0FEF716F940
:10379000401B022801D90320D2E405480068C0F389
:1037A00040600028F2D101E00120C9E40020C7E414
:1037B00000440258004802584FF0E020006940F0F1
:1037C00002004FF0E02108617047000070B5044628
:1037D0000E4615460CB9012070BD94F8450028B975
:1037E000002084F84400204600F024F804F1080189
:1037F0002068FDF73BFF3146A2682068FDF776FFA1
:103800002946E36AD4E90102FDF70CFFA1682068AC
:1038100050F8210040F00100A268216841F8220020
:103820000348006840F00040014908600020D3E7E9
:103830000040005270474FF0E020006920F0020085
:103840004FF0E0210861704710B504460CB9012023
:1038500010BDA06900B100E000BF94F8790028B95C
:10386000002084F87800204600F02AF8242084F80C
:1038700079002068006820F0010021680860204677
:1038800001F000F8012800D1E2E7606B10B120469A
:1038900000F048FF2068406820F4904021684860AC
:1038A0002068806820F02A0021688860206800680D
:1038B00040F0010021680860204600F0A8FFC7E73B
:1038C0007047000000B59BB04C2108A8FDF776F8C2
:1038D0001C2101A8FDF772F81848089018480990B3
:1038E0000520019002200290039001200490022004
:1038F00005900690002007900A9000210B910C91F2
:1039000020210D9100210E910F9110914FF48051C3
:103910001191002112911391149115911691179103
:1039200001AA01A908A8FFF751FF20B14FF4927135
:1039300004A0FDF70EFA1BB000BD000000400052CD
:10394000044100522E2E5C2E2E5C557365725C6213
:1039500073705C7372635C6273705F666D635F69E2
:103960006F2E630000B587B000BF3E48006840F08E
:1039700008003C4908600846006800F00800019013
:1039800000BF00BF00BF0846006840F0100008609C
:103990000846006800F01000019000BF00BF00BFA3
:1039A0000846006840F0400008600846006800F0E3
:1039B0004000019000BF00BF00BF0846006840F013
:1039C000800008600846006800F08000019000BF99
:1039D00000BF00BF0846006840F4807008600846D9
:1039E000006800F48070019000BF00BF00BF1D4858
:1039F0000C38006840F480501A490C3908600846B9
:103A0000006800F48050019000BF00BF02200390C6
:103A100001200490032005900C2006904CF2B37016
:103A2000029002A91048FDF7A3FE4FF680700290A5
:103A300002A90E48FDF79CFE0320029002A90C4843
:103A4000FDF796FE4FF47F40029002A90948FDF76A
:103A50008FFE40F2CF60029002A90748FDF788FE72
:103A600007B000BDE0440258000C02580010025894
:103A700000180258001C0258002002580146044851
:103A80000068084008B1012070470020FCE70000F2
:103A9000807E002029B9084A12688243064B1A60CA
:103AA00004E0054A12680243034B1A60024A126896
:103AB000024B1A6070470000807E002000100060FA
:103AC00010B53249096801F0004149B12F49096830
:103AD00041F000412D4A11608169891C816110BD4E
:103AE0002A49083909682A4A11622849091F0978B0
:103AF00082F824102549C91E0978916223490C31A6
:103B00000968D1622149891E098811861F490968FF
:103B100051631E49091D096891631C4910310968E8
:103B2000D1631CA200210BE0535C254C238500BF10
:103B3000234BDB6903F04003002BF9D04B1CD9B2B7
:103B40002929F1D300211F4A116000BF1D490968CE
:103B50000029FBD00E4A01681160416851608168FC
:103B60009160C168D16001691161416951618169E8
:103B70009161C169D1610021124A116000BF1149F0
:103B800009680029FBD000BFA9E700002CED00E088
:103B9000789000200D0A456E746572204861726449
:103BA0004661756C745F48616E646C65722C20535D
:103BB000797374656D2048616C742E0D0A000000E5
:103BC00000100140907E002000B5B5B001200190AA
:103BD00000201F9001A8FEF75FFA00BF654800684B
:103BE00040F00100634908600846006800F00100E9
:103BF000009000BF00BF00BF0846006840F0010011
:103C000008600846006800F00100009000BF00BF97
:103C100000BF58481030006840F01000554910317E
:103C200008600846006800F01000009000BF00BF68
:103C30004FF4007030900220319001203290032028
:103C400033900720349030A94B48FDF791FD4FF495
:103C5000806030900720349030A94748FDF788FDF8
:103C6000002202212520FDF767FF2520FDF754FFE4
:103C70000C2300224FF4E131404801F0F5FE3F48AB
:103C8000006A40F040003D4908620846008B40F061
:103C9000080008830846006840F02000086000BF64
:103CA0003448006840F00200324908600846006865
:103CB00000F00200009000BF00BF00BF084600688F
:103CC00040F0020008600846006800F00200009022
:103CD00000BF00BF00BF27480830006840F48020C4
:103CE0002449083108600846006800F480200090EC
:103CF00000BF00BF4FF4806030900220319001205F
:103D00003290032033900720349030A91C48FDF7EF
:103D10002FFD4FF4006030900720349030A91848F0
:103D2000FDF726FD002202212720FDF705FF2720B1
:103D3000FDF7F2FE0C2300224FF41651114801F05A
:103D400093FE10482030006840F040000D492031BB
:103D500008600C481830008840F008000949183104
:103D600008800848006840F020000649086035B027
:103D700000BD0000E044025800000258001001405D
:103D8000000402580048004000BFEFF3108018B94B
:103D900000BFEFF3118008B1012070470020FCE75D
:103DA00000BFEFF3108018B900BFEFF3118008B126
:103DB000012070470020FCE700BFEFF3108018B926
:103DC00000BFEFF3118008B1012070470020FCE72D
:103DD00000BFEFF3108018B900BFEFF3118008B1F6
:103DE000012070470020FCE700BFEFF3058008B119
:103DF000012070470020FCE700BFEFF3058008B109
:103E0000012070470020FCE700BFEFF3058008B1F8
:103E1000012070470020FCE700BFEFF3058008B1E8
:103E2000012070470020FCE72DE9F0410446082CF2
:103E300017DA0026FF27002508E0284600F038F8AA
:103E400010B1701CC6B22F46681CC5B2082DF4DB39
:103E5000012E04D1A74202D10120BDE8F08100204B
:103E6000FBE7082C0BD1002000F022F828B101203C
:103E700000F01EF808B10120EFE70020EDE7092C63
:103E80000BD1012000F014F828B1022000F010F846
:103E900008B10120E1E70020DFE70020DDE700BFF7
:103EA000EFF3148000F0010080F001007047000083
:103EB00001460B4850F831000069094B03EBC10380
:103EC0009B88184008B9002200E00122044800EB5A
:103ED000C1008079904201D1012070470020FCE7A9
:103EE000507600081FB5FDF7CFFD01208DF80000CA
:103EF0004FF01050019012208DF8080003208DF82B
:103F00000B0001208DF80F008DF80E0000208DF8B9
:103F10000D008DF8010001208DF80A0000208DF8B9
:103F200009008DF80C006846FDF780FD01208DF832
:103F300000004FF0C04001900F208DF808000320D2
:103F40008DF80B0001208DF80F0000208DF80E0079
:103F50008DF80D0001208DF8010000208DF80A0079
:103F60008DF809008DF80C006846FDF75FFD042010
:103F7000FDF7A0FD1FBD10B502465318184610BD31
:103F800000BFFEE72DE9F041054605F12800FCF7EA
:103F9000A0FA074667B1EC6A07E00121A01CFCF714
:103FA00029FA064606B902E0A468002CF5D100E023
:103FB00000242046BDE8F0812DE9F04105460C467D
:103FC000286BA0B12E6B002701E0374676681EB142
:103FD000F078E1788842F8DB6660A7600EB1B460E3
:103FE00000E0EC620FB17C6006E02C6304E000208E
:103FF0006060A060EC622C6305F12800FCF73BFADE
:10400000BDE8F0814A681AB1D1E901329A6001E055
:104010008A68C2628A681AB1D1E901235A6001E054
:104020004A680263704770474FF0E02000697047AC
:104030000948007830B10020074908704FF08060CF
:10404000064908604FF0E020006940F001004FF0A1
:10405000E021086170470000947E002004ED00E03C
:104060004FF0FF307047000010B502460B4612B902
:104070004FF0FF3010BD0D480068B0FBF2F0411E5C
:10408000B1F1807F02D34FF0FF30F3E7FF240848FF
:10409000C47206204FF0E0242061204641610020D8
:1040A000A061044C207000BFE4E70000887E00207F
:1040B00018ED00E0947E00202DE9F04104460E4604
:1040C00000274848006800F00300032802D10120BF
:1040D000BDE8F08143482838006820F080604149FD
:1040E00028390860FDF76AFC054606E0FDF766FC26
:1040F000401B022801D90320EAE73A482838006823
:10410000C0F3C0600028F1D100BF3648006820F439
:104110007C30216840EA013032490860A088401EA6
:10412000C0F30800A168491E4FF47E4202EA412113
:104130000843A189491ED20102EA01410843217CBA
:10414000491E120202EA0161084326491031086043
:1041500000BF2448001D006820F0C00061690843CA
:104160002049091D08600846006820F02000A16968
:1041700008431C49091D08602EB90846006840F430
:104180000020086012E0012E08D11648001D0068CA
:1041900040F480101349091D086007E01148001D14
:1041A000006840F400100F49091D08600D482838C8
:1041B000006840F080600B4928390860FDF7FEFB7D
:1041C000054606E0FDF7FAFB401B022801D9032053
:1041D0007EE7044828380068C0F3C0600028F1D0AA
:1041E000384675E7284402582DE9F04104460E464A
:1041F00000274848006800F00300032802D101208E
:10420000BDE8F08143482838006820F080504149DB
:1042100028390860FDF7D2FB054606E0FDF7CEFB26
:10422000401B022801D90320EAE73A4828380068F1
:10423000C0F340700028F1D100BF3648006820F07C
:104240007C70218840EA015032490860A088401EF5
:10425000C0F30800A168491E4FF47E4202EA4121E2
:104260000843A189491ED20102EA01410843217C89
:10427000491E120202EA016108432649183108600A
:1042800000BF2448001D006820F4406061690843B5
:104290002049091D08600846006820F40070A169E3
:1042A00008431C49091D08602EB90846006840F4FF
:1042B0008000086012E0012E08D11648001D006839
:1042C00040F400001349091D086007E01148001D73
:1042D000006840F080700F49091D08600D482838BB
:1042E000006840F080500B4928390860FDF766FBF4
:1042F000054606E0FDF762FB401B022801D90320BA
:104300007EE7044828380068C0F340700028F1D0E8
:10431000384675E72844025800B587B000BF0D48FD
:10432000006840F002000B4908600846006800F091
:104330000200019000BF00BF012003900020049004
:10434000032005900420029002A90348FDF710FA0B
:1043500007B000BDE0440258000402587047000056
:1043600004200149088070471804025804200149BC
:10437000088070471A04025810B51B48006840B105
:1043800019480068401E1849086010B901201749F3
:104390000870002408E004EB4401154A02EB810098
:1043A00001F096FB601CC4B2042CF4DB11480068D9
:1043B000401C10490860084600686FF000418842C0
:1043C00002D100200B49086001F03AFB0A4800784E
:1043D000401CC0B2084908700A2803DB002008709E
:1043E00001F02AFB10BD0000707E0020747E0020CA
:1043F000F07F0020787E00207D7E002010B59CB0EC
:1044000000243A48006820F004003849086000BFE2
:104410000020009035480C30006840F4404033499B
:104420000C3108600846006800F44040009000BF6E
:1044300000BF00BF2D480C30006800F40050B0F5FC
:10444000005FF7D101200190000402900020049049
:10445000089002200A9002210B9105210C91A021C5
:104460000D9102210E91109104210F9100211291C2
:104470000821119101A8FEF73DFE04461CB1A221BE
:104480001BA0FCF766FC3F20149003201590002031
:1044900016900820179040201890199000011A904B
:1044A00040201B90042114A8FEF792FB04461CB187
:1044B000BD210FA0FCF74DFC1348006840F08000C0
:1044C0001149086000BF1048F430006840F0020055
:1044D0000D49F43108600846006800F002000090C1
:1044E00000BF00BFFDF73AF91CB010BD0C480258E0
:1044F0002E2E5C2E2E5C557365725C6273705C624E
:1045000073702E63000000000044025820480068C9
:1045100040F470001E4908601E48006840F0010029
:104520001C49086000201B491031086019480068C8
:1045300019490840174908600020164918310860D9
:10454000091D0860091D0860124928310860091D0D
:104550000860091D0860091D0860091D0860091D23
:104560000860091D0860091D08600A48006820F4F9
:104570008020084908600020064960310860012059
:1045800006490860C006024980390860704700008B
:1045900088ED00E0004402587FEDF6EA0881005102
:1045A00010B5FFF79FFCFCF7FDFAFDF72DFAFFF7BA
:1045B00025FF01210F20FCF7FBFCFCF78DFD10BD52
:1045C00070B5002500264FF08044206900F00205F8
:1045D000E06800F002065DB156B14FF6FD70206153
:1045E000E0684FF6FD710840E0601E4800688047B3
:1045F000206900F00405E06800F004065DB156B1E2
:104600004FF6FB702061E0684FF6FB710840E060F8
:10461000154800688047206900F00805E06800F050
:1046200008065DB156B14FF6F7702061E0684FF6AD
:10463000F7710840E0600D4800688047206900F08D
:104640001005E06800F010065DB156B14FF6EF704E
:104650002061E0684FF6EF710840E06004480068B0
:10466000804770BD607E0020647E0020687E002050
:104670006C7E00202DE9F04107460E46154605F0F8
:10468000020080B905F0010030B1314607F1280081
:10469000FCF715F8044615E0314607F12800FCF751
:1046A00021F804460EE0BC6A05F0010018B104EAE6
:1046B0000600B04205D105F0010018B904EA060071
:1046C00000B900242046BDE8F081000030B5024664
:1046D00000230D4C606C03E00469091B0346C068AD
:1046E00010B104698C42F7D911619360D06020B198
:1046F00004691569641B046182600BB1DA6001E032
:10470000014C626430BD00009C7E0020C16811B184
:10471000D0E902129160024AC168516470470000FA
:104720009C7E002090F8341001F0010139B101683D
:10473000496821F40031826B11430268516090F89E
:10474000341001F0020139B10168496821F4803167
:10475000C26B11430268516090F8341001F00401FB
:1047600039B10168496821F48021026C1143026863
:10477000516090F8341001F0080139B101684968BE
:1047800021F40041426C11430268516090F83410EA
:1047900001F0100139B10168896821F48051826CFF
:1047A00011430268916090F8341001F0200139B192
:1047B0000168896821F40051C26C1143026891605C
:1047C00090F8341001F0400199B10168496821F472
:1047D0008011026D114302685160016DB1F5801FB7
:1047E00007D10168496821F4C001426D1143026894
:1047F000516090F8341001F0800139B101684968C6
:1048000021F40021826D114302685160704738B570
:10481000044600250020E067FDF7D0F80546206833
:10482000006800F0080008280CD16FF07E402B468D
:1048300000224FF400110090204600F0F5FC08B172
:10484000032038BD2068006800F0040004280CD163
:104850006FF07E402B4600224FF4800100902046EE
:1048600000F0E2FC08B10320EBE7202084F8790097
:1048700084F87A0000BF002084F8780000BF00BFF1
:10488000DFE700002DE9F04F89B0044600254FF026
:104890008008A946AA4600200890FA492068884264
:1048A00001D1012000E0002000B100E000BFA06ABB
:1048B000B0F1005F00D100BF2169A06808436169C1
:1048C0000843E16940EA0105A06A054320680068E1
:1048D000ED4908402843216808602068406820F4BA
:1048E0004050E168084321684860A569E5492068AF
:1048F000884201D1012000E0002008B9206A054368
:10490000A06AB0F1005F03D1D4E90B01084305436D
:1049100020688068DD490840284321688860206855
:10492000C06A20F00F00616A08432168C86200BFB6
:10493000D7492068884224D1D648006800F0380062
:10494000182814D005DC48B108280AD0102817D13F
:104950000AE020280ED0282812D10EE04FF00108DE
:104960000EE04FF004080BE04FF0400808E04FF075
:10497000080805E04FF0100802E04FF0200800BFE3
:1049800017E1C549206888421DD1C248006800F07F
:104990000700062816D2DFE800F00306090C0F1204
:1049A0004FF000080EE04FF004080BE04FF0400815
:1049B00008E04FF0080805E04FF0100802E04FF063
:1049C000200800BFF5E0B549206888421DD1B148F4
:1049D000006800F00700062816D2DFE800F00306A2
:1049E000090C0F124FF000080EE04FF004080BE026
:1049F0004FF0400808E04FF0080805E04FF01008BD
:104A000002E04FF0200800BFD3E0A54920688842AB
:104A10001DD1A048006800F00700062816D2DFE884
:104A200000F00306090C0F124FF000080EE04FF0E3
:104A300004080BE04FF0400808E04FF0080805E0DC
:104A40004FF0100802E04FF0200800BFB1E0954998
:104A5000206888421DD18F48006800F007000628B2
:104A600016D2DFE800F00306090C0F124FF0000821
:104A70000EE04FF004080BE04FF0400808E04FF064
:104A8000080805E04FF0100802E04FF0200800BFD2
:104A90008FE085492068884224D17E48006800F074
:104AA0003800182814D005DC48B108280AD010288E
:104AB00017D10AE020280ED0282812D10EE04FF09E
:104AC00001080EE04FF004080BE04FF0400808E04A
:104AD0004FF0080805E04FF0100802E04FF0200802
:104AE00000BF66E07149206888421DD169480068AE
:104AF00000F00700062816D2DFE800F00306090CD4
:104B00000F124FF000080EE04FF004080BE04FF0DA
:104B1000400808E04FF0080805E04FF0100802E0F8
:104B20004FF0200800BF44E06149206888421DD151
:104B30005848006800F00700062816D2DFE800F0A9
:104B40000306090C0F124FF000080EE04FF00408A6
:104B50000BE04FF0400808E04FF0080805E04FF088
:104B6000100802E04FF0200800BF22E0454920680D
:104B700088421ED14748001D006800F00700062843
:104B800016D2DFE800F00306090C0F124FF00208FE
:104B90000EE04FF004080BE04FF0400808E04FF043
:104BA000080805E04FF0100802E04FF0200800BFB1
:104BB00000BF00BF33492068884201D1012000E0D6
:104BC000002000285DD00025B8F1100F33D009DC9B
:104BD000B8F1020F10D0B8F1040F11D0B8F1080FDE
:104BE0002ED117E0B8F1200F27D0B8F1400F0CD02C
:104BF000B8F1800F24D124E0FDF70CF8054623E03E
:104C000005A8FDF71DF8069D1EE002A8FDF72EF988
:104C1000039D19E01F4854380068C0F3401040B1AC
:104C20001C4854380068C0F3C101224820FA01F53D
:104C300000E0204D08E0204D06E04FF4004503E081
:104C400000BF0120089000BF00BF002D0AD060689F
:104C500000EB4000A84203D860680003A84202D2DB
:104C600001200890D4E2B8F1100F7CD026DCB8F116
:104C7000020F2DD0B8F1040F52D0B8F1080F73D144
:104C80009EE03FE1000C0058F369FFCFFFF4FF11F5
:104C900000100140544402580044004000480040C5
:104CA000004C0040005000400014014000780040DB
:104CB000007C00400090D00300093D00B8F1200FB7
:104CC0007DD0B8F1400F54D0B8F1800FD7D109E1B1
:104CD000FCF7A0FF00270646FB49606A31F810C0C8
:104CE00062463B4630463946FBF71EFE4FF480765F
:104CF00000220346A3FB060701FB067103FB021318
:104D000061684908064671185A41CDE90012666883
:104D10003246002308460199FBF706FE0546E4E00B
:104D200005A8FCF78DFFDDF818C0E749606A31F887
:104D300010B05A46002360461946FBF7F5FD4FF4C4
:104D4000807C0022A0FB0C3B01FB0CB100FB02109D
:104D5000616849085E1840EB0201D4F804C062465D
:104D60000023304601E079E0BBE0FBF7DDFD0546BE
:104D7000BBE002A8FDF77AF8DDF80CC0D249606A02
:104D800031F810B05A46002360461946FBF7CCFDB7
:104D90004FF4807C0022A0FB0C3B01FB0CB100FB1C
:104DA0000210616849085E1840EB0201D4F804C0A3
:104DB000624600233046FBF7B7FD054695E06EE0FE
:104DC000C2480068C0F3401038B3C0480068C0F360
:104DD000C101BF4820FA01FCBB49606A31F810B03C
:104DE0005A46002360461946FBF79EFD4FF4807C2F
:104DF0000022A0FB0C3B01FB0CB100FB0210616820
:104E000049085E1840EB0201D4F804C06246002352
:104E10003046FBF789FD05461FE0AB49606A31F873
:104E200010C062460023AA481946FBF77DFD4FF4E7
:104E3000807C0022A0FB0C3B01FB0CB100FB0210AC
:104E4000616849085E1840EB0201D4F804C062466C
:104E500000233046FBF768FD054646E09A49606A44
:104E600031F810C0624600239A481946FBF75CFDF2
:104E70004FF4807C0022A0FB0C3B01FB0CB100FB3B
:104E80000210616849085E1840EB0201D4F804C0C2
:104E9000624600233046FBF747FD054625E08A4978
:104EA000606A31F810C0624600234FF40040194692
:104EB000FBF73AFD4FF4807C0022A0FB0C3B01FB8A
:104EC0000CB100FB0210616849085E1840EB02015A
:104ED000D4F804C0624600233046FBF725FD0546A2
:104EE00003E000BF0120089000BF00BFB5F5407F80
:104EF00005D3B5F5801F02D22068C56088E1012086
:104F0000089085E1E069B0F5004F7CD1B8F1100F51
:104F10007AD00CDCB8F1000F13D0B8F1010F21D01A
:104F2000B8F1040F2FD0B8F1080F6ED151E0B8F1ED
:104F3000200F6BD0B8F1400F38D0B8F1800F64D19A
:104F400097E0FDF789FF604A616A32F81110B0FB03
:104F5000F1F04000616800EB5100B0FBF1F01FFA86
:104F600080FA89E0FDF78EFF574A616A32F8111026
:104F7000B0FBF1F04000616800EB5100B0FBF1F0D4
:104F80001FFA80FA78E005A8FCF75AFE06994E4A07
:104F9000606A32F81000B1FBF0F04000616800EB8D
:104FA0005100B0FBF1F01FFA80FA65E002A8FCF7AF
:104FB0005DFF0399444A606A32F81000B1FBF0F0DB
:104FC0004000616800EB5100B0FBF1F01FFA80FA7D
:104FD00052E03E480068C0F34010C0B13B48006852
:104FE000C0F3C1013A48C840374A616A32F811102B
:104FF000B0FBF1F04000616800EB5100B0FBF1F054
:105000001FFA80FA12E044E011E031E01FE02E497F
:10501000606A31F810002E49B1FBF0F04000616881
:1050200000EB5100B0FBF1F01FFA80FA24E02649B2
:10503000606A31F810002749B1FBF0F04000616868
:1050400000EB5100B0FBF1F01FFA80FA14E01E49AA
:10505000606A31F810004FF40041B1FBF0F04000FD
:10506000616800EB5100B0FBF1F01FFA80FA03E039
:1050700000BF0120089000BF00BF4FF6F0700AEAA1
:105080000009CAF3420049EA00092068C0F80C9000
:10509000BEE0B8F1100F7CD00CDCB8F1000F1BD0D3
:1050A000B8F1010F29D0B8F1040F37D0B8F1080FCB
:1050B00070D159E0B8F1200F6DD0B8F1400F40D059
:1050C000B8F1800F66D19FE0907600080044025846
:1050D0000090D00300093D00FDF7BEFE4E4A616A14
:1050E00032F81110B0FBF1F0616800EB5100B0FB39
:1050F000F1F080B22168C86089E0FDF7C3FE464A3E
:10510000616A32F81110B0FBF1F0616800EB5100F8
:10511000B0FBF1F080B22168C86078E005A8FCF728
:105120008FFD06993C4A606A32F81000B1FBF0F03E
:10513000616800EB5100B0FBF1F080B22168C860FB
:1051400065E002A8FCF792FE0399334A606A32F8E0
:105150001000B1FBF0F0616800EB5100B0FBF1F022
:1051600080B22168C86052E02C480068C0F340104B
:10517000C0B12A480068C0F3C1012948C840264A86
:10518000616A32F81110B0FBF1F0616800EB510078
:1051900002E017E037E025E0B0FBF1F080B22168D3
:1051A000C8600EE01C49606A31F810001C49B1FB70
:1051B000F0F0616800EB5100B0FBF1F080B22168C3
:1051C000C86024E01449606A31F810001549B1FB49
:1051D000F0F0616800EB5100B0FBF1F080B22168A3
:1051E000C86014E00C49606A31F810004FF40041C7
:1051F000B1FBF0F0616800EB5100B0FBF1F080B260
:105200002168C86003E000BF0120089000BF00BF14
:10521000089809B0BDE8F08F907600080044025865
:105220000090D00300093D002DE9F04104460D46F1
:1052300017469846069E21E0701CF8B12EB1FCF787
:10524000BDFBA0EB0800B04218D92068006820F42C
:10525000D070216808602068806820F00100216813
:105260008860202084F8790084F87A0000BF00204C
:1052700084F8780000BF0320BDE8F0812068C06991
:105280002840A84201D1012000E00020B842D3D03C
:105290000020F1E710B5024800F00CF810BD000046
:1052A0002080002010B5024800F004F810BD000076
:1052B0004C8800202DE9F04104462068C56920682B
:1052C00006682068D0F8088005F02000D8B1206872
:1052D000808CC7B2E18AA0684754E08A401C80B243
:1052E000E082E189884201DB0020E082608BE18975
:1052F000884202DA608B401C6083606A10B13846D5
:10530000616A884700BF05F0800028B306F080007E
:1053100010B3A08A60B92068006820F0800021687E
:1053200008602068006840F040002168086013E0D1
:10533000012084F82800618A6068405C2168088543
:10534000608A401C80B26082A189884201DB002013
:105350006082A08A401EA08205F0400018B306F0CB
:10536000400000B3A08A68B92068006820F04000BF
:1053700021680860206A08B1206A8047002084F80C
:10538000280010E0618A6068405C21680885608AB6
:10539000401C80B26082A189884201DB00206082CB
:1053A000A08A401EA0822068006A40F001002168A7
:1053B00008622068006A40F00200216808622068E4
:1053C000006A40F00400216808622068006A40F02A
:1053D0000800216808622068006A40F01000216817
:1053E00008622068006A40F0400021680862206876
:1053F000006A40F48070216808622068006A40F406
:105400000070216808622068006A40F4003021685A
:1054100008622068006A40F48010216808622068F1
:10542000006A40F0200021680862BDE8F081F8B50C
:1054300004460F461646002539E01EE0012000F024
:10544000C6F8A08A0090002000F0C1F8A089BDF83D
:105450000010884200DD11E0A089BDF800108842EC
:105460000AD12068006800F0800028B92068006830
:1054700040F080002168086000BFDFE700BF785D72
:10548000228A61688854012000F0A1F8208A401C1B
:1054900080B22082A189884201DB00202082A08A7C
:1054A000401CA082002000F092F8681C85B2B54232
:1054B000C3DB2068006840F0800021680860F8BD08
:1054C00019481A4908601A4848601A4888604FF419
:1054D00080608881C881002008824882C882088351
:1054E00048838882C8610862486281F828001248AF
:1054F0001249086012484860124888604FF4806082
:105500008881C881002008824882C8820883488335
:1055100088820D48C8610D4808620D484862002025
:1055200081F8280070470000001001402080002012
:105530004C8000204C840020004800404C88002013
:1055400078880020788C0020614300086D430008B3
:105550005D43000800BFFEE70FB4054B10B503A97B
:10556000044A029800F036F810BC5DF814FB000005
:105570006D5B0008987E002002480068C0F302209E
:10558000704700000CED00E010B5002804DB0A07AE
:10559000130E054A135406E00A07140E034A00F0DE
:1055A0000F031B1FD45410BD00E400E018ED00E011
:1055B00002E008C8121F08C1002AFAD170477047DC
:1055C000002001E001C1121F002AFBD1704780F3C7
:1055D000108870472DE9F84F99469246884605464F
:1055E000002706E025280AD051464A4690476D1C00
:1055F0007F1C28780028F5D13846BDE8F88F0023B5
:1056000015F8011F18462E2915D115F8011F04237E
:105610002A290DD06FF02F022978A1F13004092C2E
:1056200009D800EB800002EB400008446D1CF3E752
:1056300058F8040B6D1C2A78002ADDD0632A07D0A5
:10564000732A0FD0104651464A4690477F1C2AE0E5
:1056500018F8042B8DF8002000218DF801106E46FB
:10566000012103E058F8046B4FF0FF315A074FF067
:10567000000401D409E0641C84420BDA8C42FADB9A
:10568000325D002AF7D105E0641C8C42FCDB305D02
:105690000028F9D1274404E016F8010B51464A4688
:1056A0009047641EF8D26D1CA3E7000070B5054654
:1056B000304800EB05142846FEF7B6FB00283ED024
:1056C0002079052802DA0520207152E020790A2885
:1056D00003DA2079401C20714BE0A07A38B9012010
:1056E000A07205EB4501491CC8B200F095F920896C
:1056F00000283EDDE088218988420DDAE088401CE0
:1057000080B2E0802189884233D105EB4501C91C74
:10571000C8B200F081F92CE0E07A002829DD207B76
:10572000401CC0B22073E17A884222DB0020207343
:1057300005EB4501491CC8B200F06EF919E020796B
:10574000052802DD0520207110E0207918B12079AC
:10575000401E20710AE0A07A012807D10020A07223
:1057600005EB4501891CC8B200F056F90020E08025
:10577000207370BD407F00200B48807A0A4AD27A9D
:10578000904201D1002070470748807A064A115C98
:105790001046807A401CC0B290720A2801DB0020BB
:1057A00090720846EFE70000E07F002010B500F09F
:1057B00009F800F02DF800F0DBF800F017F800F021
:1057C000C9F810BD0748006840F0807005490860BE
:1057D0000020054948600846006840F00100086064
:1057E00070470000FCED00E0001000E010B5FEF78F
:1057F000B9F8FEF767F840F61470034908600846E8
:1058000000680249086010BD807E00200010006022
:1058100010B500F063F800F001F810BD10B586B0C7
:1058200000BF2C48006840F002002A490860084682
:10583000006800F00200009000BF00BF00BF0846F3
:10584000006840F0040008600846006800F00400AA
:10585000009000BF00BF00BF0846006840F0400055
:1058600008600846006800F04000009000BF00BFDC
:1058700000BF0846006840F08000086008460068E5
:1058800000F08000009000BF00BF00BF0846006825
:1058900040F4807008600846006800F48070009052
:1058A00000BF00BF0020029003900320049000245A
:1058B0000CE0094800EBC40080880190064951F8CB
:1058C000340001A9FBF754FF601CC4B2082CF0DBC4
:1058D00006B010BDE04402585076000810B5002014
:1058E0001A498872C8720873002418E064201849A5
:1058F00001EB041108810220154901EB0411087124
:105900000020134901EB04118872114901EB0411C5
:10591000C8720F4901EB04110873601CC4B20A2C51
:10592000E4DB06226421032000F08CF806226421C7
:10593000042000F087F806226421052000F082F898
:1059400006226421104600F07DF810BDE07F0020A3
:10595000407F002010B5012000F01DF8022000F06B
:105960001AF8032000F017F8042000F014F810BD16
:1059700010B5FFF7A5FDFEF727F9FEF7CDFC10BD2A
:1059800010B5002404E02046FFF790FE601CC4B26E
:105990000A2CF8DB10BD10B50446012C04D10121FE
:1059A0000002FEF777F813E0022C04D1012148022F
:1059B000FEF770F80CE0032C04D101218802FEF7F9
:1059C00069F805E0042C03D10121C802FEF762F852
:1059D00010BD70B50446012C01D105020DE0022C6A
:1059E00001D1250209E0032C02D14FF4806504E0C7
:1059F000042C01D1650200E070BD2846FEF73EF898
:105A000020B100212846FEF745F803E00121284691
:105A1000FEF740F800BFEFE70649C97A054A50543F
:105A20001146C97A491CC9B2D1720A2901DB002189
:105A3000D1727047E07F002010B5FFF7A1FF10BDC5
:105A40007047000010B5074B03EB00131981054B9D
:105A500003EB0013DA720023024C04EB00142373EF
:105A600010BD0000407F0020F0B5A1B004460D46F7
:105A700017461E4601940295002103910491059753
:105A800007910696089109910A910B910C910D913D
:105A900000200E9001A8FDF7D7FE20B140F22A3178
:105AA00002A0FBF756F921B0F0BD00002E2E5C2EAF
:105AB0002E5C557365725C6273705C7372635C62BA
:105AC00073705F756172745F6669666F2E63000044
:105AD000416851B14168491E416031B901214170AD
